:020000040000FA
:0600000005EF19F01200EB
:08000800D0BE2BEF19F0B4EF9C
:0400100013F01200D7
:06001800B4EF13F012002A
:02002A000000D4
:04002C00F5EC12F0ED
:100030006FDA92DA31DB6BDAD8DA02DBF6EC12F047
:1000400012000201B9050EE10201B251006E016A0F
:10005000D890015004E6FF0E005C000E015802E249
:100060000201B22B1200D9CFE6FFDACFE6FFE1CFD3
:10007000D9FFE2CFDAFFE6520201B90573E1C00E03
:10008000F214DF6E800ED0143F09F2160201B25155
:10009000000802E20201B2070201B25161E102016D
:1000A000B4515EE1920E006E2A0E016E000E026ED9
:1000B000B7C203F0046A056A00500324F36E0150CE
:1000C0000420F46E02500520F86EF4CFF7FFF3CF52
:1000D000F6FF0800F5CFB3F2920E016E2A0E026E03
:1000E000000E036E0201B351EA6AB80FE96E020E08
:1000F000EA22EFCF04F0056A066A01500424F36E89
:1001000002500520F46E03500620F86EF4CFF7FF7E
:10011000F3CFF6FF0800F5CF00F00201B351080D50
:10012000F35000240201B66F0201B5510201B65D21
:1001300017E00201B651E96EEA6AD890E936EA366C
:100140002B0EE926030EEA22EECF27F3EDCF28F39C
:100150000201402B000E412342234323FDEC13F008
:10016000DF50F212E552E552E5CFDAFFE7CFD9FFD3
:100170001200D9CFE6FFDACFE6FFE1CFD9FFE2CF19
:10018000DAFFE6520201B90517E1C00EF214DF6E84
:10019000800ED0143F09F2160201B451006E016ABC
:1001A000D890015004E6FF0E005C000E015802E2F8
:1001B0000201B42BDF50F212E552E552E5CFDAFF2F
:1001C000E7CFD9FF1200D9CFE6FFDACFE6FFE1CFC4
:1001D000D9FFE2CFDAFFE6520201B9051CE1C00EF9
:1001E000F214DF6E800ED0143F09F2160201B451F2
:1001F00000080FE20201B4070201B45107E1020155
:10020000B25104E1DF50F212C3DA02D0DF50F21231
:1002100002D0DF50F212E552E552E5CFDAFFE7CF28
:10022000D9FF1200D9CFE6FFDACFE6FFE1CFD9FF41
:10023000E2CFDAFFE652E6520201B9515CE1920EDA
:10024000006E2A0E016E000E026EB7C203F0046A41
:10025000056A00500324F36E01500420F46E02502E
:100260000520F86EF4CFF7FFF3CFF6FF0800F55046
:10027000DF6E920E006E2A0E016E000E026EDF50CF
:10028000EA6AB80FE96E020EEA22EFCF03F0046AC1
:10029000056A00500324F36E01500420F46E0250EE
:1002A0000520F86EF4CFF7FFF3CFF6FF0800010E3C
:1002B000F5CFDBFF010EDBCFE6FFDF50080DF3507B
:1002C000E552E7240201B66FB6C2B5F20201B6519B
:1002D000E96EEA6AD890E936EA362B0EE926030E73
:1002E000EA22EECF27F3EDCF28F327C323F328C369
:1002F00024F3F7EC12F0E552E552E552E5CFDAFFD0
:10030000E7CFD9FF1200D9CFE6FFDACFE6FFE1CF82
:10031000D9FFE2CFDAFFE652020EE66EE66AF2ECB1
:100320000EF0E552E552C00EF214DF6E800ED014CE
:100330003F09F2160201BB6BBC6BBD6BBE6BDF509D
:10034000F212640EE66EE66AF2EC0EF0E552E55249
:10035000C00EF214DF6E800ED0143F09F216BBC23D
:1003600045F2BCC246F2BDC247F2BEC248F202012B
:10037000010E4D6FDF50F212E552E552E5CFDAFF84
:10038000E7CFD9FF1200D9CFE6FFDACFE6FFE1CF02
:10039000D9FFE2CFDAFFE652E652E652E5EC12F080
:1003A000C00EF214DF6E800ED0143F09F216030166
:1003B0009F2B000EA023A123A223DF50F2120201E3
:1003C000B90501E095D0010E29C3DBFF020E2AC357
:1003D000DBFF010EDBCFE9FF020EDBCFEAFF150EDC
:1003E000E926000EEA22EF50030801E181D0C00E99
:1003F000F214DF6E800ED0143F09F216010EDBCF2F
:10040000E9FF020EDBCFEAFF120EE926000EEA2218
:10041000EE50ED105AE0010EDBCFE9FF020EDBCF0C
:10042000EAFF120EE926000EEA22EE06000EED5A51
:10043000EECF00F0EDCF01F00050011046E1010ECB
:10044000DBCFE9FF020EDBCFEAFF140EE926000E38
:10045000EA22EF50080B2CE1010EDBCFE9FF020E80
:10046000DBCFEAFF190EE926000EEA22EF50020167
:10047000B713010EDBCFE9FF020EDBCFEAFF180E48
:10048000E926000EEA22EFCF00F0010EDBCFE9FFF4
:10049000020EDBCFEAFF170EE926000EEA22EF502C
:1004A000EA6AB80FE96E020EEA220050EF120DD090
:1004B000010EDBCFE9FF020EDBCFEAFF120EE926C9
:1004C000000EEA22010EEE6EED6A010EDBCFE9FFAF
:1004D000020EDBCFEAFF0E0EE926000EEA22010E25
:1004E000EECFDBFF020EEDCFDBFFDF50F21271D754
:1004F000E552E552E552E552E5CFDAFFE7CFD9FF05
:100500001200FC0EF36EF46A00D01200120012000A
:1005100003019F6BA06BA16BA26B0201B26B020186
:10052000B46B0201BA6B0201B96B0201406B416B03
:10053000426B436B0201BB6BBC6BBD6BBE6B0201BC
:10054000496B4A6B4B6B4C6B0201456B466B476BBF
:10055000486B02014D6B1200D9CFE6FFDACFE6FF00
:10056000E1CFD9FFE2CFDAFFE652E652E652E65299
:100570000201B76BD950020FE96EDACFEAFF000E25
:10058000EA22B80EEE6E020EED6EDE6ADD6ADECF96
:1005900000F0DDCF01F0010E005C000E01580FE20B
:1005A000020EDBCFE9FFDB2A030EDBCFEAFF01E31C
:1005B000DB2AEF6ADF2A010E01E3DB2AE8D702011A
:1005C000B56B0201B66B0301276B286B0301236B2C
:1005D000246B040EE15C02E2E16AE552E16EE55251
:1005E000E5CFDAFFE7CFD9FF1200030EE66EE66A29
:1005F000000EE66EE66A640EE66EE66AE66AE66A93
:10060000220EE66E030EE66EE668E668030EE66E00
:10061000BF0EE66E020EE66E000EE66EE66A900E05
:10062000E66E080EE66E000EE66E9CEC09F0006EBB
:10063000140EE15C02E2E16AE552E16E0050120044
:10064000030EE66EE66A000EE66EE66A640EE66E7D
:10065000E66AE66AE66AB10EE66E020EE66EFE0E27
:10066000E66EE668020EE66E4E0EE66E020EE66E70
:10067000000EE66EE66AEC0EE66E080EE66E000E02
:10068000E66E9CEC09F0006E140EE15C02E2E16A99
:10069000E552E16E00501200D9CFE6FFDACFE6FF57
:1006A000E1CFD9FFE2CFDAFFE652E652E652E65258
:1006B000E6520301296B2A6BDF6A040EDF5C0DE250
:1006C000EA6ADF34FE0BEA36E96E2B0EE926030EEA
:1006D000EA22EE6AED6ADF2AF0D7D950010FE96EFF
:1006E000DACFEAFF000EEA22330EEE6E030EED6E55
:1006F000D950030FE96EDACFEAFF000EEA224E0E60
:10070000EE6E030EED6EDF6A030EDF5C26E2010E75
:10071000DBCFE9FF020EDBCFEAFF0E0EE926000E6B
:10072000EA22030EDBCFEEFF040EDBCFEDFFD95044
:10073000010FE96E000EDA20EA6E1B0EEE26000EA7
:10074000EF22D950030FE96E000EDA20EA6E1B0E7D
:10075000EE26000EEF22DF2AD7D7010EDBCFE9FF0E
:10076000020EDBCFEAFF0E0EEB6A0F0EEB6A0301FF
:10077000330E256F030E266F050EE15C02E2E16A7F
:10078000E552E16EE552E5CFDAFFE7CFD9FF12007F
:10079000D9CFE6FFDACFE6FFE1CFD9FFE2CFDAFF2C
:1007A000E652E652C00EF214DF6E800ED0143F09FE
:1007B000F2160201B25162E10201B4515FE1920E00
:1007C000006E2A0E016E000E026EB7C203F0046ABC
:1007D000056A00500324F36E01500420F46E0250A9
:1007E0000520F86EF4CFF7FFF3CFF6FF0800010EF7
:1007F000F5CFDBFF920E016E2A0E026E000E036E25
:10080000010EDB50EA6AB80FE96E020EEA22EFCF62
:1008100004F0056A066A01500424F36E02500520B4
:10082000F46E03500620F86EF4CFF7FFF3CFF6FF17
:100830000800F5CF00F0010EDB50080DF350002446
:100840000201B66F0201B5510201B65D17E0020167
:10085000B651E96EEA6AD890E936EA362B0EE926F7
:10086000030EEA22EECF27F3EDCF28F30201402B4F
:10087000000E41234223432339EC13F0DF50F212E0
:10088000E552E552E552E5CFDAFFE7CFD9FF120096
:10089000D9CFE6FFDACFE6FFE1CFD9FFE2CFDAFF2B
:1008A000E652FC0EDBCF1AF0FD0EDBCF1BF0FC0E88
:1008B0001AC0DBFFFD0E1BC0DBFFC00EF214DF6EA3
:1008C000800ED0143F09F2160201BB2B000EBC2390
:1008D000BD23BE23DF50F212F4EC12F0EED7E55246
:1008E000E552E5CFDAFFE7CFD9FF1200D9CFE6FF17
:1008F000DACFE6FFE1CFD9FFE2CFDAFF0A0EE1243B
:1009000002E3E168E652E16EFC0EDBCF1AF0FD0E69
:10091000DBCF1BF0FC0E1AC0DBFFFD0E1BC0DBFFA4
:1009200002014D5108E1C80EE66EE66AF2EC0EF0E7
:10093000E552E552F5D745C218F046C219F047C254
:100940001AF048C21BF0640E1D6E1E6A1F6A206AF0
:100950003AEC18F0050E18C0DBFF060E19C0DBFFDD
:10096000070E1AC0DBFF080E1BC0DBFFC00EF2141F
:10097000DF6E800ED0143F09F216BBC249F2BCC232
:100980004AF2BDC24BF2BEC24CF2010EBBC2DBFF4B
:10099000020EBCC2DBFF030EBDC2DBFF040EBEC2F3
:1009A000DBFF0201BB6BBC6BBD6BBE6BDF50F21299
:1009B000D950050FE96E000EDA20EA6ED880000EDD
:1009C000EE54000EEE54000EEE54000EEE5442E2D1
:1009D000640E046E056A066A076A010EDBCF08F032
:1009E000020EDBCF09F0030EDBCF0AF0040EDBCFE3
:1009F0000BF008C018F009C019F00AC01AF00BC0BB
:100A00001BF0050EDBCF1DF0060EDBCF1EF0070E30
:100A1000DBCF1FF0080EDBCF20F03AEC18F01850B7
:100A2000045C006E19500558016E1A500658026E8B
:100A30001B500758036E090E00C0DBFF090EDBCF09
:100A400000F0003404E2090EDBCF44F202D00201D0
:100A5000446B1DD00201446B45C218F046C219F028
:100A600047C21AF048C21BF0640E1D6E1E6A1F6A50
:100A7000206A3AEC18F0050E18C0DBFF060E19C00C
:100A8000DBFF070E1AC0DBFF080E1BC0DBFFE4EC28
:100A900012F0640EE66EE66AF2EC0EF0E552E552F4
:100AA00065D70A0EE15C02E2E16AE552E16EE552C9
:100AB000E5CFDAFFE7CFD9FF1200D9CFE6FFDACFD3
:100AC000E6FFE1CFD9FFE2CFDAFFE652E652E65287
:100AD000C00EF214DF6E800ED0143F09F216010E24
:100AE00025C3DBFF020E26C3DBFFD950010FE96EE1
:100AF000000EDA20EA6EEE50ED1001E1AFD1010EEA
:100B0000DBCFE9FF020EDBCFEAFF0E0EE926000E77
:100B1000EA22EECF25F3EDCF26F3DF50F212010EDD
:100B2000DBCFE9FF020EDBCFEAFFFB0EDBCFEEFFF0
:100B3000FC0EDBCFEDFF010EDBCFE9FF020EDBCFBA
:100B4000EAFF150EE926000EEA22FD0EDBCFEFFFCD
:100B5000010EDBCFE9FF020EDBCFEAFF140EE92620
:100B6000000EEA22EF6A010EDBCFE9FF020EDBCFB7
:100B7000EAFF120EEB6A130EEB6A010EDBCFE9FF00
:100B8000020EDBCFEAFF020EE926000EEA22F10E8A
:100B9000DBCFEEFFF20EDBCFEDFF010EDBCFE9FF87
:100BA000020EDBCFEAFF060EE926000EEA22F30E64
:100BB000DBCFEEFFF40EDBCFEEFFF50EDBCFEEFF6B
:100BC000F60EDBCFEEFF010EDBCFE9FF020EDBCF2F
:100BD000EAFF040EE926000EEA22F90EDBCFEEFF53
:100BE000FA0EDBCFEDFF010EDBCFE9FF020EDBCF0C
:100BF000EAFF0A0EE926000EEA22EF0EDBCFEEFF37
:100C0000F00EDBCFEDFF010EDBCFE9FF020EDBCFF5
:100C1000EAFF0C0EE926000EEA22F70EDBCFEEFF0C
:100C2000F80EDBCFEDFF010EDBCFE9FF020EDBCFCD
:100C3000EAFF1A0EE926000EEA22EF6AFD0EDB40FB
:100C4000E840E8401F0BE66E010EDBCFE9FF020E25
:100C5000DBCFEAFF170EE926000EEA22E552E75045
:100C6000EF6E8A0E006E2A0E016E000E026E010EED
:100C7000DBCFE9FF020EDBCFEAFF170EE926000EFD
:100C8000EA22EFCF03F0046A056A00500324F36EF2
:100C900001500420F46E02500520F86EF4CFF7FFE7
:100CA000F3CFF6FF0800F550E66E010EDBCFE9FF4B
:100CB000020EDBCFEAFF190EE926000EEA22E5520A
:100CC000E750EF6EFD0EDB50070BE66E010EDBCF3B
:100CD000E9FF020EDBCFEAFF160EE926000EEA223C
:100CE000E552E750EF6E8A0E006E2A0E016E000E7E
:100CF000026E010EDBCFE9FF020EDBCFEAFF160E1C
:100D0000E926000EEA22EFCF03F0046A056A0050DC
:100D10000324F36E01500420F46E02500520F86E97
:100D2000F4CFF7FFF3CFF6FF0800F550E66E010EA3
:100D3000DBCFE9FF020EDBCFEAFF180EE926000E3B
:100D4000EA22E552E750EF6E010EDBCFE6FF020E1E
:100D5000DBCFE6FFE6EC12F0E552E552010EDBCF09
:100D6000E6FF020EDBCFE6FFC6EC12F0E552E552DD
:100D7000C00EF214DF6E800ED0143F09F216FD0E85
:100D8000EA6ADB34FE0BEA36E96E2B0EE926030E27
:100D9000EA22010EDBCFEEFF020EDBCFEDFF010EEC
:100DA000DBCFE9FF020EDBCFEAFF0E0EE926000ED5
:100DB000EA2229C3EEFF2AC3EDFF010EDBCFE9FFD4
:100DC000020EDBCFEAFF100EEB6A110EEB6A030195
:100DD00029512A110EE029C3E9FF2AC3EAFF100EA8
:100DE000E926000EEA22010EDBCFEEFF020EDBCF7A
:100DF000EDFF010EDBCF29F3020EDBCF2AF3010E4C
:100E0000DBCFE9FF020EDBCFEAFF190EE926000E69
:100E1000EA22EF500201B713010EDBCFE9FF020E09
:100E2000DBCFEAFF180EE926000EEA22EFCF00F032
:100E3000010EDBCFE9FF020EDBCFEAFF170EE9263A
:100E4000000EEA22EF50EA6AB80FE96E020EEA22BB
:100E50000050EF12DF50F212000E04D0DF50F212F9
:100E6000460E00D0E552E552E552E552E5CFDAFFF5
:100E7000E7CFD9FF1200D9CFE6FFDACFE6FFE1CF07
:100E8000D9FFE2CFDAFF070EE12402E3E168E65280
:100E9000E16E030EF36EFD0EDBCFF4FFF350F45C56
:100EA00004E3FD0EDB50FF0808E1030EF36EFC0EB9
:100EB000DBCFF4FFF350F45C02E32A0E6DD1C00ED9
:100EC000F214DF6E800ED0143F09F216FC0EEA6AAF
:100ED000DB34FE0BEA36E96E2B0EE926030EEA221E
:100EE000EE50ED1005E0DF50F212280E55D154D12E
:100EF000FC0EEA6ADB34FE0BEA36E96E2B0EE926BD
:100F0000030EEA22010EEE6EED6ADF50F212FC0EC5
:100F1000DB40E840E8401F0BE76E040EE7CFDBFF45
:100F20008A0E006E2A0E016E000E026E040EDBCFDA
:100F300003F0046A056A00500324F36E0150042094
:100F4000F46E02500520F86EF4CFF7FFF3CFF6FFF2
:100F50000800060EF5CFDBFFFC0EDB50070BE76E3B
:100F6000030EE7CFDBFF8A0E006E2A0E016E000E25
:100F7000026E030EDBCF03F0046A056A00500324FF
:100F8000F36E01500420F46E02500520F86EF4CF89
:100F9000F7FFF3CFF6FF0800050EF5CFDBFFC00E1D
:100FA000F214DF6E800ED0143F09F216FD0EDB50F6
:100FB000FF080AE123C3E9FF24C3EAFF150EEB5043
:100FC000E76EFD0EE7CFDBFFFD0EEA6ADB34FE0BBA
:100FD000EA36E96E2B0EE926030EEA22010EEECF69
:100FE000DBFF020EEDCFDBFFD950010FE96E000EE3
:100FF000DA20EA6EEE50ED1001E1BED0FD0EEA6A95
:10100000DB34FE0BEA36E96E2B0EE926030EEA22EC
:10101000EE6AED6A010EDBCFE9FF020EDBCFEAFFDD
:10102000180EE926000EEA22EFCF00F0010EDBCF0A
:10103000E9FF020EDBCFEAFF170EE926000EEA22D7
:10104000EF50EA6AB80FE96E020EEA22EF50001480
:101050003BE0010EDBCFE9FF020EDBCFEAFF180E0B
:10106000E926000EEA22EF1C006E010EDBCFE9FF3D
:10107000020EDBCFEAFF170EE926000EEA22EF5040
:10108000EA6AB80FE96E020EEA220050EF16EF503E
:101090000DE1010EDBCFE9FF020EDBCFEAFF190EF7
:1010A000E926000EEA22EF1C0201B717060EDB50FC
:1010B0000201B713040EDB50EA6AB80FE96E020EA4
:1010C000EA22050EDB50EF12FC0EEA6ADB34FE0B5F
:1010D000EA36E96E2B0EE926030EEA22010EDBCF7B
:1010E000EEFF020EDBCFEDFF010EDBCFE9FF020EBC
:1010F000DBCFEAFF150EE926000EEA22FC0EDBCF5D
:10110000EFFF010EDBCFE9FF020EDBCFEAFF170E88
:10111000E926000EEA22040EDBCFEFFF010EDBCF43
:10112000E9FF020EDBCFEAFF160EE926000EEA22E7
:10113000030EDBCFEFFF010EDBCFE9FF020EDBCFAB
:10114000EAFF190EE926000EEA22060EDBCFEFFFBA
:10115000010EDBCFE9FF020EDBCFEAFF180EE92616
:10116000000EEA22050EDBCFEFFFDF50F212C8ECD3
:1011700003F0000E11D010D0FC0EEA6ADB34FE0B37
:10118000EA36E96E2B0EE926030EEA22EE6AED6AD4
:10119000DF50F212290E00D0006E070EE15C02E271
:1011A000E16AE552E16E0050E552E5CFDAFFE7CFA4
:1011B000D9FF1200D9CFE6FFDACFE6FFE1CFD9FFA2
:1011C000E2CFDAFFE652E652E652E652F60EDB5086
:1011D000030802E22A0EA2D0C00EF214DF6E800EC7
:1011E000D0143F09F216F60EEA6ADB34FE0BEA363B
:1011F000E96E2B0EE926030EEA22EE50ED1001E017
:1012000089D0F60EEA6ADB34FE0BEA36E96E2B0E65
:10121000E926030EEA22010EEE6EED6ADF50F212AD
:10122000000EE66EE66AF70EDBCFE6FFF80EDBCFC8
:10123000E6FFF90EDBCFE6FFFA0EDBCFE6FFFB0E93
:10124000DBCFE6FFFC0EDBCFE6FFFD0EDBCFE6FFDC
:10125000BCEC11F0006E090EE15C02E2E16AE552BD
:10126000E16E0050DE52F3CFDEFFF4CFDDFFDD5242
:10127000000EE66EE66A000EE66EE66AE66AE66A6A
:10128000E66AE66A000EE66EE66A000EE66EE66A5A
:10129000010EDBCFE6FF020EDBCFE6FFF60EDBCF63
:1012A000E6FF0BDC006E0F0EE15C02E2E16AE55244
:1012B000E16E0050E76E030EE7CFDBFF030EDB505D
:1012C00011E1C00EF214DF6E800ED0143F09F21649
:1012D0000201BA2BDF50F2120201B90502E1C8EC9B
:1012E00003F015D0C00EF214DF6E800ED0143F094B
:1012F000F216F60EEA6ADB34FE0BEA36E96E2B0EC6
:10130000E926030EEA22EE6AED6ADF50F212030EBE
:10131000DB5004D0DF50F212280E00D0006E040E15
:10132000E15C02E2E16AE552E16E0050E552E5CF90
:10133000DAFFE7CFD9FF1200D9CFE6FFDACFE6FF19
:10134000E1CFD9FFE2CFDAFFE652E652E652E652AB
:10135000F60EDB50030802E22A0EDBD0C00EF214B8
:10136000DF6E800ED0143F09F216F60EEA6ADB3407
:10137000FE0BEA36E96E2B0EE926030EEA22EE504A
:10138000ED1001E0C2D0F60EEA6ADB34FE0BEA365D
:10139000E96E2B0EE926030EEA22010EEE6EED6ACF
:1013A000DF50F212EA0EDB50010B04E1EA0EDB50D3
:1013B000020B17E0EE0EDBCFE6FFEF0EDBCFE6FF12
:1013C000E66AF70EDBCFE6FFF80EDBCFE6FFB5EC03
:1013D00018F0006E050EE15C02E2E16AE552E16E92
:1013E0000050EA0EDBCFE6FFEB0EDBCFE6FFF70E99
:1013F000DBCFE6FFF80EDBCFE6FFF90EDBCFE6FF33
:10140000FA0EDBCFE6FFFB0EDBCFE6FFFC0EDBCFF9
:10141000E6FFFD0EDBCFE6FFBCEC11F0006E090E1F
:10142000E15C02E2E16AE552E16E0050DE52F3CF88
:10143000DEFFF4CFDDFFDD52EA0EDBCFE6FFEB0E81
:10144000DBCFE6FFEC0EDBCFE6FFED0EDBCFE6FFFA
:10145000D950EE0FE96EFF0EDA20EA6EEECFE6FF0E
:10146000EECFE6FFEECFE6FFEFCFE6FFF40EDBCFE9
:10147000E6FFF50EDBCFE6FFF20EDBCFE6FFF30E65
:10148000DBCFE6FF010EDBCFE6FF020EDBCFE6FF90
:10149000F60EDBCFE6FF5DEC05F0006E0F0EE15CB3
:1014A00002E2E16AE552E16E0050E76E030EE7CF1B
:1014B000DBFF030EDB5011E1C00EF214DF6E800E75
:1014C000D0143F09F2160201BA2BDF50F2120201CA
:1014D000B90502E1C8EC03F015D0C00EF214DF6EBE
:1014E000800ED0143F09F216F60EEA6ADB34FE0BCA
:1014F000EA36E96E2B0EE926030EEA22EE6AED6A61
:10150000DF50F212030EDB5004D0DF50F212280E2F
:1015100000D0006E040EE15C02E2E16AE552E16E89
:101520000050E552E5CFDAFFE7CFD9FF1200D9CF5F
:10153000E6FFDACFE6FFE1CFD9FFE2CFDAFFE652EE
:10154000E652E652E6520201B251000802E23F0EB4
:1015500052D1FD0EDB50030802E13D0E4CD1030ECB
:10156000F36EFD0EDBCFF4FFF350F45C06E3FD0EEB
:10157000DB50FF0802E02A0E3ED1C00EF214DF6EEF
:10158000800ED0143F09F216FD0EDB50FF080AE171
:1015900023C3E9FF24C3EAFF150EEB50E76EFD0EEF
:1015A000E7CFDBFFFD0EEA6ADB34FE0BEA36E96EBD
:1015B0002B0EE926030EEA22010EEECFDBFF020E10
:1015C000EDCFDBFFD950010FE96E000EDA20EA6E95
:1015D000EE50ED1001E10BD1010EDBCFE9FF020E61
:1015E000DBCFEAFF180EE926000EEA22EF1C006EA0
:1015F000010EDBCFE9FF020EDBCFEAFF170EE92673
:10160000000EEA22EF50EA6AB80FE96E020EEA22F3
:101610000050EF16EF500DE1010EDBCFE9FF020E97
:10162000DBCFEAFF190EE926000EEA22EF1C0201C9
:10163000B717010EDBCFE9FF020EDBCFEAFF120E78
:10164000EB6A130EEB6A010EDBCFE9FF020EDBCF74
:10165000EAFF140EE926000EEA22EF6A0201B451F5
:10166000006E016AD890015004E6FF0E005C000E87
:10167000015802E20201B42BDF50F21286EC02F0B4
:10168000C00EF214DF6E800ED0143F09F216020174
:10169000B451000802E20201B407010EDBCFE6FFFD
:1016A000020EDBCFE6FFD4EC12F0E552E552020168
:1016B000BA07FD0EEA6ADB34FE0BEA36E96E2B0E42
:1016C000E926030EEA22EE6AED6A010EDBCFE9FF9E
:1016D000020EDBCFEAFF100EE926000EEA22EE50E2
:1016E000ED1023E1010EDBCFE9FF020EDBCFEAFFB5
:1016F0000E0EE926000EEA22EE50EFCFEAFFE96E69
:10170000100EE926000EEA22EE6AED6A010EDBCF2A
:10171000E9FF020EDBCFEAFF0E0EE926000EEA22F9
:10172000EECF29F3EDCF2AF348D0010EDBCFE9FF4E
:10173000020EDBCFEAFF0E0EE926000EEA22EECF04
:1017400000F0EFCF01F0010EDBCFE9FF020EDBCF9F
:10175000EAFF100EE926000EEA22EE50EFCFEAFF74
:10176000E96E0E0EE926000EEA2200C0EEFF01C06F
:10177000EDFF010EDBCFE9FF020EDBCFEAFF100E1B
:10178000E926000EEA22EECF00F0EFCF01F0010EC5
:10179000DBCFE9FF020EDBCFEAFF0E0EE926000EDB
:1017A000EA22EE50EFCFEAFFE96E100EE926000EB6
:1017B000EA2200C0EEFF01C0EDFF010EDBCFE9FF22
:1017C000020EDBCFEAFF0E0EE926000EEA2225C349
:1017D000EEFF26C3EDFF010EDBCF25F3020EDBCFBC
:1017E00026F3DF50F212C8EC03F0000E04D0DF50F5
:1017F000F2123C0E00D0006E040EE15C02E2E16ADF
:10180000E552E16E0050E552E5CFDAFFE7CFD9FFB0
:101810001200D9CFE6FFDACFE6FFE1CFD9FFE2CF62
:10182000DAFFE652E652E652E652E652FD0EDB5091
:10183000030802E13D0E61D0030EF36EFD0EDBCF17
:10184000F4FFF350F45C06E3FD0EDB50FF0802E00A
:101850002A0E53D0FD0EDB50FF0816E1C00EF21425
:10186000DF6E800ED0143F09F21623C3E9FF24C3B4
:10187000EAFF1A0EEB50E76E010EE7CFDBFFDF50F9
:10188000F212010EDB5039D0C00EF214DF6E800E62
:10189000D0143F09F216FD0EEA6ADB34FE0BEA367D
:1018A000E96E2B0EE926030EEA22030EEECFDBFFD4
:1018B000040EEDCFDBFFD950030FE96E000EDA20E6
:1018C000EA6EEE50ED100FE0030EDBCFE9FF040EE1
:1018D000DBCFEAFF1A0EE926000EEA223E0EEF6E7B
:1018E000020EDB6A05D00B0EF36E020EF3CFDBFFA8
:1018F000DF50F212020EDB5000D0006E050EE15CEC
:1019000002E2E16AE552E16E0050E552E5CFDAFF0E
:10191000E7CFD9FF1200D9CFE6FFDACFE6FFE1CF5C
:10192000D9FFE2CFDAFFE652E652E652030EF36E3B
:10193000FD0EDBCFF4FFF350F45C02E32A0E83D0FC
:10194000C00EF214DF6E800ED0143F09F216FD0EA9
:10195000EA6ADB34FE0BEA36E96E2B0EE926030E4B
:10196000EA22010EEECFDBFF020EEDCFDBFFD950F6
:10197000010FE96E000EDA20EA6EEE50ED1004E180
:10198000DF50F212640E5FD0010EDBCFE9FF020ED2
:10199000DBCFEAFF140EE926000EEA22EF50080B17
:1019A0004EE0010EDBCFE9FF020EDBCFEAFF140EA3
:1019B000E926000EEA22EF96EF503DE1010EDBCF63
:1019C000E9FF020EDBCFEAFF120EE926000EEA2243
:1019D000EE50ED1030E1010EDBCFE9FF020EDBCF60
:1019E000EAFF190EE926000EEA22EF500201B713B2
:1019F000010EDBCFE9FF020EDBCFEAFF180EE9266E
:101A0000000EEA22EFCF00F0010EDBCFE9FF020E5D
:101A1000DBCFEAFF170EE926000EEA22EF50EA6A52
:101A2000B80FE96E020EEA220050EF12DF50F212F8
:101A3000C8EC03F002D0DF50F212000E04D0DF50E9
:101A4000F212650E00D0E552E552E552E552E5CFBF
:101A5000DAFFE7CFD9FF1200D9CFE6FFDACFE6FFF2
:101A6000E1CFD9FFE2CFDAFF0D0EE12402E3E16816
:101A7000E652E16EFD0EDB50030806E2FD0EDB5080
:101A8000FF0802E02A0EEAD0FB0EDBCFE9FFFC0ED6
:101A9000DBCFEAFFEE6AEE6AEE6AEE6AFB0EDBCFA0
:101AA000E9FFFC0EDBCFEAFF040EE926000EEA2276
:101AB000EE6AEE6AEE6AEE6AC00EF214DF6E800E17
:101AC000D0143F09F216FD0EDB50FF080AE123C3D4
:101AD000E9FF24C3EAFF150EEB50E76EFD0EE7CFDA
:101AE000DBFFFD0EEA6ADB34FE0BEA36E96E2B0EF5
:101AF000E926030EEA22010EEECFDBFF020EEDCF48
:101B0000DBFFD950010FE96E000EDA20EA6EEE50CD
:101B1000ED1004E1DF50F2120B0EA0D0010EDBCF6E
:101B2000E9FF020EDBCFEAFF0A0EE926000EEA22E9
:101B3000EECF00F0EFCF01F00050010B04E1DF50D9
:101B4000F212820E8BD0050EDB6A060EDB6A070EE0
:101B5000DB6A080EDB6A010EDBCFE9FF020EDBCF8A
:101B6000EAFF060EE926000EEA22090EEECFDBFFA1
:101B70000A0EEECFDBFF0B0EEECFDBFF0C0EEECF2F
:101B8000DBFF010EDBCFE9FF020EDBCFEAFF040E25
:101B9000E926000EEA22030EEECFDBFF040EEDCFA6
:101BA000DBFFDF50F212030EDBCFE9FFDB06040E92
:101BB000DBCFEAFF01E2DB06EF500CE1D950050F65
:101BC000E96E000EDA20EA6EEE2A000EEE22EE2218
:101BD000EE22E9D7FB0EDBCFE9FFFC0EDBCFEAFFFD
:101BE000050EDBCFEEFF060EDBCFEEFF070EDBCFE1
:101BF000EEFF080EDBCFEEFF090EDBCF04F00A0E7E
:101C0000DBCF05F00B0EDBCF06F00C0EDBCF07F0C1
:101C1000D950050FE96E000EDA20EA6EEE50045C32
:101C2000006EEE500558016EEE500658026EEE50F2
:101C30000758036EFB0EDBCFE9FFFC0EDBCFEAFF9C
:101C4000040EE926000EEA2200C0EEFF01C0EEFFFE
:101C500002C0EEFF03C0EEFF000E00D0006E0D0EBE
:101C6000E15C02E2E16AE552E16E0050E552E5CF47
:101C7000DAFFE7CFD9FF1200D9CFE6FFDACFE6FFD0
:101C8000E1CFD9FFE2CFDAFFE652E652E652E65262
:101C9000FD0EDB50030802E15B0E96D0030EF36EDF
:101CA000FD0EDBCFF4FFF350F45C06E3FD0EDB50DA
:101CB000FF0802E02A0E88D0C00EF214DF6E800EFC
:101CC000D0143F09F216FD0EDB50FF080EE123C3CE
:101CD000E9FF24C3EAFF150EEB50E76EFD0EE7CFD8
:101CE000DBFFDE52010EDD6E11D023C3E9FF24C3FA
:101CF000EAFF150EEB50F36EFD0EDB50F35C04E1D2
:101D0000DE52010EDD6E02D0010EDB6AFD0EEA6AC4
:101D1000DB34FE0BEA36E96E2B0EE926030EEA22CF
:101D2000020EEECFDBFF030EEDCFDBFFD950020F2B
:101D3000E96E000EDA20EA6EEE50ED1004E1DF509D
:101D4000F2125A0E41D0020EDBCFE9FF030EDBCFB9
:101D5000EAFF180EE926000EEA22EF1C006E020EC2
:101D6000DBCFE9FF030EDBCFEAFF170EE926000EFB
:101D7000EA22EF50EA6AB80FE96E020EEA2200503A
:101D8000EF16EF500DE1020EDBCFE9FF030EDBCFC4
:101D9000EAFF190EE926000EEA22EF1C0201B7172E
:101DA000020EDBCFE9FF030EDBCFEAFF140EE926BC
:101DB000000EEA22EF86DF50F212010EDB0402E190
:101DC000C8EC03F0000E00D0006E040EE15C02E2ED
:101DD000E16AE552E16E0050E552E5CFDAFFE7CF68
:101DE000D9FF1200D9CFE6FFDACFE6FFE1CFD9FF66
:101DF000E2CFDAFFE652D950FC0FE96EFF0EDA208F
:101E0000EA6E000ED880EE54000EED5439E2C00E9A
:101E1000F214DF6E800ED0143F09F21623C3E9FFDF
:101E200024C3EAFF180EEB50E81C006E23C3E9FF41
:101E300024C3EAFF170EEB50EA6AB80FE96E020EF0
:101E4000EA220050EF16EF5009E123C3E9FF24C353
:101E5000EAFF190EEB50E81C0201B71723C3E9FF94
:101E600024C3EAFF120EE926000EEA22FC0EDBCFA5
:101E7000EEFFFD0EDBCFEDFFDF50F212C8EC03F0FA
:101E8000E552E552E5CFDAFFE7CFD9FF1200D9CF0F
:101E9000E6FFDACFE6FFE1CFD9FFE2CFDAFF060EA9
:101EA000E12402E3E168E652E16EFD0EDB5000083A
:101EB00015E3FC0EDB50000811E3FB0EDB500008BD
:101EC0000DE3D950F90FE96EFF0EDA20EA6E000E2D
:101ED000D880EE54000EED5401E337D1FC0EDB50F8
:101EE0003B0802E2510E33D1FB0EDB503B0802E20D
:101EF000520E2DD1D950F90FE96EFF0EDA20EA6E9D
:101F0000E70ED880EE54030EED5402E2530E1FD1BB
:101F1000FD0EDBCF04F0056A066A076A100E1D6E1F
:101F20000E0E1E6E1F6A206A04C018F005C019F05C
:101F300006C01AF007C01BF0C9EC16F014C004F07C
:101F400015C005F016C006F017C007F0FC0EDBCF79
:101F500008F0096A0A6A0B6A3C0E1D6E1E6A1F6A47
:101F6000206A08C018F009C019F00AC01AF00BC0A6
:101F70001BF0C9EC16F014C008F015C009F016C02B
:101F80000AF017C00BF008500426095005220A5029
:101F900006220B500722FB0EDBCF0CF00D6A0E6AF7
:101FA0000F6A04500C24006E05500D20016E06507F
:101FB0000E20026E07500F20036E640E1D6E1E6A07
:101FC0001F6A206A00C018F001C019F002C01AF0A0
:101FD00003C01BF0C9EC16F014C000F015C001F0EE
:101FE00016C002F017C003F0F90EDBCF10F0FA0EA6
:101FF000DBCF11F0126A136A050E1026000E1122B3
:10200000000E1222000E1322640E1D6E1E6A1F6A3D
:10201000206A10C018F011C019F012C01AF013C0D5
:102020001BF0C9EC16F014C010F015C011F016C06A
:1020300012F017C013F0E80E1D6E030E1E6E1F6A1D
:10204000206A10C018F011C019F012C01AF013C0A5
:102050001BF03AEC18F018C010F019C011F01AC0BB
:1020600012F01BC013F01050002611500122125024
:1020700002221350032200C0DFFF010E01C0DBFF6C
:10208000020E02C0DBFF030E03C0DBFFD9CFE9FF66
:10209000DACFEAFFEECF18F0EECF19F0EECF1AF05C
:1020A000EFCF1BF01D6A1E6A010E1F6E206A3AEC0C
:1020B00018F0040E18C0DBFF050E19C0DBFFD9CFE6
:1020C000E9FFDACFEAFFEECF18F0EECF19F0EECF4E
:1020D0001AF0EFCF1BF01D6A1E6A010E1F6E206AF8
:1020E0003AEC18F014C0DEFF15C0DEFF16C0DEFFAC
:1020F00017C0DDFFDD52DD52000EDBCFE6FF010E23
:10210000DBCFE6FF6FDEE552E552D950040FE96EF2
:10211000000EDA20EA6E000ED880EE54000EED5468
:1021200012E2E66A800EE66E5DDEE552E552E66A90
:10213000800EE66E57DEE552E552040EDB06050E14
:1021400001E2DB06E2D7000E02D0540E00D0006E92
:10215000060EE15C02E2E16AE552E16E0050E552F2
:10216000E5CFDAFFE7CFD9FF1200D9CFE6FFDACF0C
:10217000E6FFE1CFD9FFE2CFDAFFE652E652E652C0
:10218000030EF36EFD0EDBCFF4FFF350F45C02E3BD
:102190002A0E81D0C00EF214DF6E800ED0143F09DB
:1021A000F216FD0EEA6ADB34FE0BEA36E96E2B0E00
:1021B000E926030EEA22010EEECFDBFF020EEDCF81
:1021C000DBFFD950010FE96E000EDA20EA6EEE5007
:1021D000ED105DE0010EDBCFE9FF020EDBCFEAFF81
:1021E000120EE926000EEA22EE50ED104CE0010E30
:1021F000DBCFE9FF020EDBCFEAFF120EEB6A130E14
:10220000EB6A010EDBCFE9FF020EDBCFEAFF140E13
:10221000E926000EEA22EF50080B30E1010EDBCF79
:10222000E9FF020EDBCFEAFF190EE926000EEA22D3
:10223000EF500201B713010EDBCFE9FF020EDBCF37
:10224000EAFF180EE926000EEA22EFCF00F0010E99
:10225000DBCFE9FF020EDBCFEAFF170EE926000E07
:10226000EA22EF50EA6AB80FE96E020EEA22005045
:10227000EF12DF50F212C8EC03F002D0DF50F2127E
:10228000000E09D004D0DF50F212500E04D0DF50FF
:10229000F2120B0E00D0E552E552E552E552E5CFC1
:1022A000DAFFE7CFD9FF1200D9CFE6FFDACFE6FF9A
:1022B000E1CFD9FFE2CFDAFFE652E652E652E6522C
:1022C000E652C00EF214DF6E800ED0143F09F216F3
:1022D000010E9FC3DBFF020EA0C3DBFF030EA1C3F1
:1022E000DBFF040EA2C3DBFFDF50F212010EDBCFD7
:1022F00000F0020EDBCF01F0030EDBCF02F0040E84
:10230000DBCF03F000C018F001C019F002C01AF0D2
:1023100003C01BF000D0050EE15C02E2E16AE55269
:10232000E16EE552E5CFDAFFE7CFD9FF1200D9CF52
:10233000E6FFDACFE6FFE1CFD9FFE2CFDAFFE652E0
:10234000C00EF214DF6E800ED0143F09F216FA0EA2
:10235000DBCF9FF3FB0EDBCFA0F3FC0EDBCFA1F3B3
:10236000FD0EDBCFA2F3DF50F212E552E552E5CFCE
:08237000DAFFE7CFD9FF1200EC
:08237800D9CFE6FFDACFE6FF42
:10238000E1CFD9FFE2CFDAFFE652E652F70EDBCF1C
:10239000DEFFDBCFDDFFDFCFE9FFDF2A010EDBCF82
:1023A000EAFF01E3DB2AF90EDBCFEFFFDFCFE9FF26
:1023B000DF2A010EDBCFEAFF01E3DB2AFA0EDBCFD7
:1023C000EFFFDFCFE9FFDF2A010EDBCFEAFF01E3FA
:1023D000DB2AEF68DFCFE9FFDF2A010EDBCFEAFF60
:1023E00001E3DB2A1A0EEF6EDFCFE9FFDF2A010ED1
:1023F000DBCFEAFF01E3DB2A1B0EEF6EDFCFE9FF45
:10240000DF2A010EDBCFEAFF01E3DB2A1C0EEF6EB1
:10241000DFCFE9FFDF2A010EDBCFEAFF01E3DB2A92
:102420001D0EEF6EDFCFE9FFDF2A010EDBCFEAFFE3
:1024300001E3DB2A1E0EEF6EDFCFE9FFDF2A010E7C
:10244000DBCFEAFF01E3DB2A1F0EEF6EDFCFE9FFF0
:10245000DF2A010EDBCFEAFF01E3DB2A2A0EEF6E53
:10246000DFCFE9FFDF2A010EDBCFEAFF01E3DB2A42
:102470002B0EEF6EDFCFE9FFDF2A010EDBCFEAFF85
:1024800001E3DB2A2C0EEF6EDFCFE9FFDF2A010E1E
:10249000DBCFEAFF01E3DB2A2D0EEF6EDFCFE9FF92
:1024A000DF2A010EDBCFEAFF01E3DB2A2E0EEF6EFF
:1024B000DFCFE9FFDF2A010EDBCFEAFF01E3DB2AF2
:1024C0002F0EEF6EDFCFE9FFDF2A010EDBCFEAFF31
:1024D00001E3DB2A3A0EEF6EDFCFE9FFDF2A010EC0
:1024E000DBCFEAFF01E3DB2A3B0EEF6EDFCFE9FF34
:1024F000DF2A010EDBCFEAFF01E3DB2A3C0EEF6EA1
:10250000DFCFE9FFDF2A010EDBCFEAFF01E3DB2AA1
:102510003D0EEF6EDFCFE9FFDF2A010EDBCFEAFFD2
:1025200001E3DB2AFB0EDBCFEFFFDFCFE9FFDF2A82
:10253000010EDBCFEAFF01E3DB2AFC0EDBCFEFFF6E
:10254000DFCFE9FFDF2A010EDBCFEAFF01E3DB2A61
:10255000FD0EDBCFEFFFDFCFE9FFDF2A010EDBCF80
:10256000EAFF01E3DB2A010EEF6EDECF00F0DDCFE4
:1025700001F000C0F3FF01C0F4FF00D0E552E552C6
:10258000E552E5CFDAFFE7CFD9FF1200D9CFE6FF5A
:10259000DACFE6FFE1CFD9FFE2CFDAFFE552E5CFB0
:1025A000DAFFE7CFD9FF1200D9CFE6FFDACFE6FF97
:1025B000E1CFD9FFE2CFDAFFE552E5CFDAFFE7CF8F
:1025C000D9FF12000400120012001200D9CFE6FF5A
:1025D000DACFE6FFE1CFD9FFE2CFDAFFE552E5CF70
:1025E000DAFFE7CFD9FF1200120012001200EADF73
:1025F0000201010EB96F27C3E9FF28C3EAFFEECF3E
:10260000E1FFEDCFE2FF1F0EFC1402E00600FBD756
:10261000FC5001E0FC6AE552E550E96E0500E5502A
:10262000FF6EE550FE6EE550FD6EE906F7E1E5CF81
:102630001BF0E5CF1AF0E5CF19F0E5CF18F0E5CFA4
:10264000F4FFE5CFF3FFE5CFF8FFE5CFF7FFE5CFE8
:10265000F6FFE5CFDAFFE7CFD9FFE552E5CFEAFF96
:10266000E5CFE9FFE550E5CFE0FFE5CFD8FF10006B
:102670001200800ED0143F09F216D8CFE4FFE0CF4D
:10268000E4FFE46EE9CFE4FFEACFE4FFE652D9CFFE
:10269000E6FFDACFE6FFF6CFE6FFF7CFE6FFF8CFAB
:1026A000E6FFF3CFE6FFF4CFE6FF18C0E6FF19C060
:1026B000E6FF1AC0E6FF1BC0E6FFE96A1F0EFC1426
:1026C00009E0FDCFE6FFFECFE6FFFFCFE6FF060005
:1026D000E92AF4D7E9CFE6FFFC5001E0FC6A23C306
:1026E000E9FF24C3EAFFE1CFEEFFE2CFEDFF6ADFAF
:1026F00027C323F328C324F3B6C2B5F227C3E9FFE7
:1027000028C3EAFFEECFE1FFEDCFE2FFE552E5504F
:10271000E96E0500E550FF6EE550FE6EE550FD6E7A
:10272000E906F7E1E5CF1BF0E5CF1AF0E5CF19F0A8
:10273000E5CF18F0E5CFF4FFE5CFF3FFE5CFF8FFE5
:10274000E5CFF7FFE5CFF6FFE5CFDAFFE7CFD9FF1B
:10275000E552E5CFEAFFE5CFE9FFE550E5CFE0FF41
:10276000E5CFD8FF10001200D8CFE4FFE0CFE4FFA0
:10277000E46EE9CFE4FFEACFE4FFE652D9CFE6FF0B
:10278000DACFE6FFF6CFE6FFF7CFE6FFF8CFE6FFBA
:10279000F3CFE6FFF4CFE6FF18C0E6FF19C0E6FF6F
:1027A0001AC0E6FF1BC0E6FF0201B22B21EC19F0B4
:1027B00033EC00F0E552E5CF1BF0E5CF1AF0E5CFA2
:1027C00019F0E5CF18F0E5CFF4FFE5CFF3FFE5CF43
:1027D000F8FFE5CFF7FFE5CFF6FFE5CFDAFFE7CF6C
:1027E000D9FFE552E5CFEAFFE5CFE9FFE550E5CFB8
:1027F000E0FFE5CFD8FF1000120006000600E5520A
:10280000E552E552E96A1F0EFC1409E0FDCFE6FF30
:10281000FECFE6FFFFCFE6FF0600E92AF4D7E9CFB7
:10282000E6FFFC5001E0FC6A23C3E9FF24C3EAFF92
:10283000E1CFEEFFE2CFEDFFC5DE27C323F328C3D0
:1028400024F3B6C2B5F227C3E9FF28C3EAFFEECFEF
:10285000E1FFEDCFE2FF1F0EFC1402E00600FBD704
:10286000FC5001E0FC6AE552E550E96E0500E550D8
:10287000FF6EE550FE6EE550FD6EE906F7E1E5CF2F
:102880001BF0E5CF1AF0E5CF19F0E5CF18F0E5CF52
:10289000F4FFE5CFF3FFE5CFF8FFE5CFF7FFE5CF96
:1028A000F6FFE5CFDAFFE7CFD9FFE552E5CFEAFF44
:1028B000E5CFE9FFE550E5CFE0FFE5CFD8FF100019
:0228C000120004
:0E28C200060EE66E2EEC19F0E5521200F00E36
:1028D000E66E13EC19F0E5521200F60EE66E13ECFC
:1028E00019F0E5521200D9CFE6FFDACFE6FFE1CFCB
:1028F000D9FFE2CFDAFF93925EEC18F0000901E015
:10290000FBD7E66A01EC17F0E552FB0EE66E310EDE
:10291000E66E000EE66E8EEC16F0E552E552E552DC
:102920008172000EE66EE66A010EE66EE66AE66AFF
:1029300047EC0FF0006E050EE15C02E2E16AE55241
:10294000E16E0050D9D7E66897EC0AF0E552E552FF
:10295000E5CFDAFFE7CFD9FF1200D9CFE6FFDACF14
:10296000E6FFE1CFD9FFE2CFDAFF93945EEC18F0F7
:10297000000901E0FBD7400EE66E01EC17F0E552CE
:10298000EC0EE66E310EE66E000EE66E8EEC16F084
:10299000E552E552E5528174C80EE66EE66AF2EC45
:1029A0000EF0E552E552E2D7E66897EC0AF0E55200
:1029B000E552E5CFDAFFE7CFD9FF1200F29E16EC21
:1029C00000F08F0EE66E99EC18F0E552780EE66E88
:1029D000EC0EE66E7DEC18F0E552E552E66AB00EBC
:1029E000E66E000EE66E000EE66EE66AE60EE66E37
:1029F000280EE66E000EE66EDAEC08F0006E080EA9
:102A0000E15C02E2E16AE552E16E0050010EE66E21
:102A1000780EE66E010EE66E000EE66EE66A5A0E5F
:102A2000E66E290EE66E000EE66EDAEC08F0006E39
:102A3000080EE15C02E2E16AE552E16E0050280E08
:102A4000E66EC9EC15F0E5525EEC18F0000901E005
:102A5000FBD7280EE66E8DEC17F0E5525EEC18F011
:102A6000000901E0FBD70F0EE66E8DEC17F0E55282
:102A70005EEC18F0000901E0FBD7060EE66E8DEC67
:0A2A800017F0E55212EC01F012000D
:062A8A0001020408102007
:102A9000408000000100020001000300010002006C
:102AA0000100040001000200010003000100020017
:102AB0000100050001000200010003000100020006
:102AC00001000400010002000100030001000200F7
:102AD00001000600010002000100030001000200E5
:102AE00001000400010002000100030001000200D7
:102AF00001000500010002000100030001000200C6
:102B000001000400010002000100030001000200B6
:102B100001000700010002000100030001000200A3
:102B20000100040001000200010003000100020096
:102B30000100050001000200010003000100020085
:102B40000100040001000200010003000100020076
:102B50000100060001000200010003000100020064
:102B60000100040001000200010003000100020056
:102B70000100050001000200010003000100020045
:102B80000100040001000200010003000100020036
:022B9000010042
:0E2B9200D9CFE6FFDACFE6FFE1CFD9FFE2CFE1
:102BA000DAFF0F0E83160F0E951695949592959059
:102BB0008C948C928C9067EC14F0300EE66E8DEC59
:102BC00017F0E552050EE66ECFEC18F0E552300E28
:102BD000E66E8DEC17F0E552010EE66ECFEC18F0C4
:102BE000E552320EE66E8DEC17F0E5525EEC18F011
:102BF000000901E0FBD75EEC18F0000901E0FBD70B
:102C0000FD0EDBCFE6FF8DEC17F0E5525EEC18F021
:102C1000000901E0FBD7080EE66E8DEC17F0E552D7
:102C20005EEC18F0000901E0FBD70F0EE66E8DECAC
:102C300017F0E5525EEC18F0000901E0FBD7010E39
:102C4000E66E8DEC17F0E5525EEC18F0000901E03D
:102C5000FBD7130EE66E8DEC17F0E5525EEC18F024
:102C6000000901E0FBD7800EE66E01EC17F0E5529B
:0E2C700000D0E552E5CFDAFFE7CFD9FF120022
:022C7E002A0E1C
:102C8000F66E000EF76E000EF86E03010900F550A7
:102C9000A86F0900F550A96F03E1A86701D03DD0E6
:102CA0000900F550A36F0900F550A46F0900F55015
:102CB000A56F09000900F550E96E0900F550EA6EAC
:102CC000090009000900F550A66F0900F550A76F2B
:102CD00009000900F6CFAAF3F7CFABF3F8CFACF3B6
:102CE000A3C3F6FFA4C3F7FFA5C3F8FF0301A653D0
:102CF00002E1A75307E00900F550EE6EA607F8E2DF
:102D0000A707F9D7AAC3F6FFABC3F7FFACC3F8FF19
:0C2D10000301A807000EA95BBFD712004A
:042D1C00D9CFE6FF26
:102D2000DACFE6FFE1CFD9FFE2CFDAFFFB0EDBCF50
:102D3000F6FFFC0EDBCFF7FFFD0EDBCFF8FF080040
:102D4000F55020E05EEC18F0000901E0FBD7FB0E27
:102D5000DBCFF6FFFC0EDBCFF7FFFD0EDBCFF8FF7E
:102D60000800F550E66E5FEC17F0E552D950FB0F06
:102D7000E96EFF0EDA20EA6EEE2A000EEE22000E59
:102D8000EE22D4D700D0E552E5CFDAFFE7CFD9FF66
:022D900012002F
:0E2D920018501D02F3CF14F0F4CF15F01E02FE
:102DA000F3501526000EF420166E18501F02F35033
:102DB0001626000EF420176E18502002F350172626
:102DC00019501D02F3501526F4501622000E17223A
:102DD00019501E02F3501626F450172219501F02E4
:102DE000F35017261A501D02F3501626F4501722DE
:102DF0001A501E02F35017261B501D02F3501726BF
:022E00001200BE
:0E2E0200D9CFE6FFDACFE6FFE1CFD9FFE2CF6E
:102E1000DAFF0F0E95160F0E8316FD0EDB5080099C
:102E2000F00B83128C948C9261EC14F08C8061EC2A
:102E300014F08C900F0E8316FD0EDB38F00BF00BA8
:102E4000831261EC14F08C8061EC14F08C90F00E25
:102E5000951200D0E552E5CFDAFFE7CFD9FF120097
:102E6000D9CFE6FFDACFE6FFE1CFD9FFE2CFDAFF35
:102E70000F0E95160F0E8316FD0EDB504009F00B5A
:102E800083128C948C9261EC14F08C8061EC14F0C1
:102E90008C900F0E8316FD0EDB38F00BF00B8312B7
:102EA00061EC14F08C8061EC14F08C90F00E9512B3
:0E2EB00000D0E552E5CFDAFFE7CFD9FF1200E0
:022EBE00D9CF6A
:102EC000E6FFDACFE6FFE1CFD9FFE2CFDAFF0F0E60
:102ED00095160F0E8316FD0EDB50F00B83128C82BD
:102EE0008C9461EC14F08C8061EC14F08C900F0EDB
:102EF0008316FD0EDB38F00BF00B831261EC14F03F
:102F00008C8061EC14F08C90F00E951200D0E5529C
:0A2F1000E5CFDAFFE7CFD9FF12008A
:062F1A00D9CFE6FFDACF7B
:102F2000E6FFE1CFD9FFE2CFDAFF0F0E95160F0EC5
:102F30008316FD0EDB50F00B83128C948C9261ECA7
:102F400014F08C8061EC14F08C900F0E8316FD0E43
:102F5000DB38F00BF00B831261EC14F08C8061EC29
:102F600014F08C90F00E951200D0E552E5CFDAFF08
:062F7000E7CFD9FF1200BB
:0A2F7600D9CFE6FFDACFE6FFE1CF86
:102F8000D9FFE2CFDAFFFC0EDBCFE9FFFD0EDBCF8E
:102F9000EAFFEF5016E05EEC18F0000901E0FBD705
:102FA000FC0EDBCFE9FFFD0EDBCFEAFFEF50E66E54
:102FB0005FEC17F0E552FC0EDB2AFD0E01E3DB2A85
:102FC000E2D700D0E552E5CFDAFFE7CFD9FF120014
:102FD000D9CFE6FFDACFE6FFE1CFD9FFE2CFDAFFC4
:102FE000E6528C848C8261EC14F08C8061EC14F0DD
:102FF000F00E8314DF6E8C9061EC14F08C8061EC29
:1030000014F083380F0B0F0BDF128C908C928C9482
:10301000DF5000D0E552E552E5CFDAFFE7CFD9FF28
:0230200012009C
:0E302200D9CFE6FFDACFE6FFE1CFD9FFE2CF4C
:10303000DAFFE6528C848C9261EC14F08C8061ECA7
:1030400014F0F00E8314DF6E8C9061EC14F08C8021
:1030500061EC14F083380F0B0F0BDF128C908C9403
:103060007F0EDF1400D0E552E552E5CFDAFFE7CF5F
:04307000D9FF120072
:0C307400176A166A156A146A200EE76ECF
:10308000D890183619361A361B36143615361636B9
:1030900017361D50145C1E5015581F5016582050DE
:1030A000175809E31D50145E1E50155A1F50165A2A
:0C30B0002050175A182AE72EE4D712000F
:0430BC008C848C92E2
:1030C00061EC14F08C8061EC14F083AE0BD08C902A
:1030D00061EC14F08C8061EC14F08C908C94010EF7
:1030E0000BD00AD08C9061EC14F08C8061EC14F061
:0A30F0008C908C94000E00D01200AA
:0630FA00D9CFE6FFDACF9A
:10310000E6FFE1CFD9FFE2CFDAFFE652E652FC0E4E
:10311000DBCFDEFFDBCFDDFF010EDB50D76EDF50F4
:10312000D66EE552E552E552E5CFDAFFE7CFD9FF9B
:0231300012008B
:0E313200D9CFE6FFDACFE6FFE1CFD9FFE2CF3B
:10314000DAFFFD0EDB507F0BD56ED76AD66AF2949C
:10315000FD0EDBAE02D0F28A01D0F29AD58EE55296
:0A316000E5CFDAFFE7CFD9FF120038
:06316A00FE0EE3CFE9FFB9
:10317000FF0EE3CFEAFFE9CFF3FFEACFF4FFFB0E48
:10318000E35003E1FC0EE35009E0FB0EE30602E22C
:0E319000FC0EE306FD0EE350EE6EF1D71200CA
:02319E00FF0E22
:1031A000E350256EEF0E01D0F30EE76EE72ED6EF5B
:1031B00018F00C0E246EE76AE72EDCEF18F0242ED0
:0C31C000DBEF18F0252ED4EF18F0120001
:0431CC00000EF36E90
:1031D00000EE00F0060E01D81200EA6002D0EE6A9E
:0C31E000FCD7F350E9601200EE6AFCD747
:0431EC002054617397
:1031F0006B20322072756C65732100205461736BF3
:0A320000203120726F636B73210010
:06320A0010EE80F020EE42
:1032100080F0F86A239C3FEC16F039EC19F0DEECF4
:0632200014F0FBD71200C0
:0A322600FF0EE350256E1B0E00D0D2
:1032300001D0200EE76EE72EFED7252EFAD700D05C
:0232400012007A
:0E324200F2A407D0F294EC0ED76E780ED66E82
:0C325000C3EC01F01200E652E552110040
:04325C00FF0EE3502E
:10326000E84E1200000000D000D000D0E82EFAD7BF
:0232700012004A
:02327200120048
:020000040030CA
:0100010022DC
:010003000EEE
:010006008178
:00000001FF
