:020000040000FA
:0600000079EF21F012006F
:08000800D0BE76EF21F04CEFB1
:040010001BF01200CF
:060018004CEF1BF012008A
:02002A000000D4
:04002C008DEC1AF04D
:1000300042EC05F066EC05F006EC06F0B7EC04F0D7
:10004000AFEC05F0DAEC05F08EEC1AF012000101CD
:1000500071050EE101016A51006E016AD8900150EC
:1000600004E6FF0E005C000E015802E201016A2B5B
:100070001200D9CFE6FFDACFE6FFE1CFD9FFE2CF1A
:10008000DAFFE6520101710573E1C00EF214DF6E72
:10009000800ED0143F09F21601016A51000802E2F5
:1000A00001016A0701016A5161E101016C515EE1E0
:1000B000E20E006E3A0E016E000E026E6FC103F08A
:1000C000046A056A00500324F36E01500420F46EA4
:1000D00002500520F86EF4CFF7FFF3CFF6FF0800CB
:1000E000F5CF6BF1E20E016E3A0E026E000E036E5A
:1000F00001016B51EA6A700FE96E010EEA22EFCF3F
:1001000004F0056A066A01500424F36E02500520CB
:10011000F46E03500620F86EF4CFF7FFF3CFF6FF2E
:100120000800F5CF00F001016B51080DF3500024D9
:1001300001016E6F01016D5101016E5D17E001015A
:100140006E51E96EEA6AD890E936EA36E30EE9269E
:10015000010EEA22EECFDFF1EDCFE0F10001B02B8E
:10016000000EB123B223B32395EC1BF0DF50F21243
:10017000E552E552E5CFDAFFE7CFD9FF1200D9CF3C
:10018000E6FFDACFE6FFE1CFD9FFE2CFDAFFE652B2
:100190000101710517E1C00EF214DF6E800ED0145C
:1001A0003F09F21601016C51006E016AD8900150AE
:1001B00004E6FF0E005C000E015802E201016C2B08
:1001C000DF50F212E552E552E5CFDAFFE7CFD9FF73
:1001D0001200D9CFE6FFDACFE6FFE1CFD9FFE2CFB9
:1001E000DAFFE652010171051DE1C00EF214DF6E67
:1001F000800ED0143F09F21601016C51000810E284
:1002000001016C0701016C5108E101016A5105E12E
:10021000DF50F21282EC06F002D0DF50F21202D070
:10022000DF50F212E552E552E5CFDAFFE7CFD9FF12
:100230001200D9CFE6FFDACFE6FFE1CFD9FFE2CF58
:10024000DAFFE652E652010171515CE1E20E006E06
:100250003A0E016E000E026E6FC103F0046A056A69
:1002600000500324F36E01500420F46E0250052068
:10027000F86EF4CFF7FFF3CFF6FF0800F550DF6E0E
:10028000E20E006E3A0E016E000E026EDF50EA6A58
:10029000700FE96E010EEA22EFCF03F0046A056ADF
:1002A00000500324F36E01500420F46E0250052028
:1002B000F86EF4CFF7FFF3CFF6FF0800010EF5CF8D
:1002C000DBFF010EDBCFE6FFDF50080DF350E552F8
:1002D000E72401016E6F6EC16DF101016E51E96E8F
:1002E000EA6AD890E936EA36E30EE926010EEA22F8
:1002F000EECFDFF1EDCFE0F1DFC1DBF1E0C1DCF10A
:100300008FEC1AF0E552E552E552E5CFDAFFE7CF80
:10031000D9FF1200D9CFE6FFDACFE6FFE1CFD9FF50
:10032000E2CFDAFFE652020EE66EE66A8AEC16F0DB
:10033000E552E552C00EF214DF6E800ED0143F0974
:10034000F2160101736B746B756B766BDF50F212F2
:10035000640EE66EE66A8AEC16F0E552E552C00ECF
:10036000F214DF6E800ED0143F09F21673C1FDF057
:1003700074C1FEF075C1FFF076C100F10101010EFC
:10038000056FDF50F212E552E552E5CFDAFFE7CF15
:10039000D9FF1200D9CFE6FFDACFE6FFE1CFD9FFD0
:1003A000E2CFDAFFE652E652E6527DEC1AF0C00EDA
:1003B000F214DF6E800ED0143F09F21602015F2B9B
:1003C000000E602361236223DF50F21201017105E8
:1003D00001E095D0010EE1C1DBFF020EE2C1DBFFBF
:1003E000010EDBCFE9FF020EDBCFEAFF170EE92695
:1003F000000EEA22EF50030801E181D0C00EF21492
:10040000DF6E800ED0143F09F216010EDBCFE9FF3C
:10041000020EDBCFEAFF140EE926000EEA22EE50B0
:10042000ED105AE0010EDBCFE9FF020EDBCFEAFF51
:10043000140EE926000EEA22EE06000EED5AEECF6B
:1004400000F0EDCF01F00050011046E1010EDBCFCE
:10045000E9FF020EDBCFEAFF160EE926000EEA22C4
:10046000EF50080B2CE1010EDBCFE9FF020EDBCFD2
:10047000EAFF1B0EE926000EEA22EF5001016F137E
:10048000010EDBCFE9FF020EDBCFEAFF1A0EE926F1
:10049000000EEA22EFCF00F0010EDBCFE9FF020EE3
:1004A000DBCFEAFF190EE926000EEA22EF50EA6AD6
:1004B000700FE96E010EEA220050EF120DD0010E0E
:1004C000DBCFE9FF020EDBCFEAFF140EE926000EB8
:1004D000EA22010EEE6EED6A010EDBCFE9FF020E9D
:1004E000DBCFEAFF0E0EE926000EEA22010EEECF68
:1004F000DBFF020EEDCFDBFFDF50F21271D7E552CA
:10050000E552E552E552E5CFDAFFE7CFD9FF120019
:10051000FC0EF36EF46A00D012001200D9CFE6FF91
:10052000DACFE6FFE1CFD9FFE2CFDAFF070EE12411
:1005300002E3E168E652E16EE20E006E3A0E016EF1
:10054000000E026EFC0EDBCFE9FFFD0EDBCFEAFFF3
:10055000EE52EFCF03F0046A056A00500324F36EF5
:1005600001500420F46E02500520F86EF4CFF7FF1E
:10057000F3CFF6FF0800030EF5CFDBFFDA0E006EB7
:100580003A0E016E000E026E030EDBCF03F0046A1A
:10059000056A00500324F36E01500420F46E0250EB
:1005A0000520F86EF4CFF7FFF3CFF6FF0800050E35
:1005B000F5CFDBFFE20E006E3A0E016E000E026E0A
:1005C000FC0EDBCFE9FFFD0EDBCFEAFF060EE926CE
:1005D000000EEA22E9CF06F0EACF07F0030EDB5067
:1005E0000F010624E96E000E0720EA6EEFCF03F03C
:1005F000046A056A00500324F36E01500420F46E6F
:1006000002500520F86EF4CFF7FFF3CFF6FF080095
:10061000020EF5CFDBFFDA0E006E3A0E016E000E11
:10062000026E020EDBCF03F0046A056A0050032459
:10063000F36E01500420F46E02500520F86EF4CFE2
:10064000F7FFF3CFF6FF0800040EF5CFDBFF020E35
:10065000DBCFE6FF030EDB50080DF350E552E72435
:10066000E76E060EE7CFDBFF040EDB1C026EFC0E0E
:10067000DBCFE9FFFD0EDBCFEAFF060EE926000E19
:10068000EA22E9CF00F0EACF01F0030EDB500F01C0
:100690000024E96E000E0120EA6E0250EF16EF50C2
:1006A0000CE1050EDB1C006EFC0EDBCFE9FFFD0E3E
:1006B000DBCFEAFFEE520050EF16060EEA6ADB349B
:1006C000FE0BEA36E96EE30EE926010EEA22EECFD2
:1006D000DEFFEDCFDDFFDECFE9FFDDCFEAFF140E59
:1006E000EB6A150EEB6ADECFE9FFDDCFEAFF120EF3
:1006F000EB6A130EEB6AFA0EDBCF1AF0FB0EDBCFC0
:100700001BF0FA0E1AC0DBFFFB0E1BC0DBFFF90E5D
:10071000DB1C006EDECFE9FFDDCFEAFF160EE92617
:10072000000EEA220050EF16DECFE9FFDDCFEAFF30
:10073000160EE926000EEA22EF500EE1050EDB5000
:1007400001016F13030EDB50EA6A700FE96E010EB0
:10075000EA22040EDB50EF12060EDB5000D0006ED2
:10076000070EE15C02E2E16AE552E16E0050E552FB
:10077000E5CFDAFFE7CFD9FF1200D9CFE6FFDACF16
:10078000E6FFE1CFD9FFE2CFDAFFDBC1E9FFDCC151
:10079000EAFF120EE926000EEA22FC0EDBCFEEFF86
:1007A000FD0EDBCFEDFFDBC1E9FFDCC1EAFF1A0E76
:1007B000EB50E81C006EDBC1E9FFDCC1EAFF190E5B
:1007C000EB50EA6A700FE96E010EEA220050EF1654
:1007D000EF5009E1DBC1E9FFDCC1EAFF1B0EEB5082
:1007E000E81C01016F17DBC1E9FFDCC1EAFF1A0E4B
:1007F000EB50026EFC0EDBCFE9FFFD0EDBCFEAFF14
:10080000060EE926000EEA22E9CF00F0EACF01F059
:10081000DBC1E9FFDCC1EAFF190EEB500F01002438
:10082000E96E000E0120EA6E0250EF12DBC1E9FF13
:10083000DCC1EAFF1B0EEB50006EFC0EDBCFE9FFC4
:10084000FD0EDBCFEAFFEE520050EF12E552E5CF8E
:10085000DAFFE7CFD9FF1200D9CFE6FFDACFE6FF04
:10086000E1CFD9FFE2CFDAFFDBC1E9FFDCC1EAFF6C
:100870001A0EEB50E81C026EFC0EDBCFE9FFFD0EFA
:10088000DBCFEAFF060EE926000EEA22E9CF00F0F0
:10089000EACF01F0DBC1E9FFDCC1EAFF190EEB5042
:1008A0000F010024E96E000E0120EA6E0250EF16DF
:1008B000EF5011E1DBC1E9FFDCC1EAFF1B0EEB5099
:1008C000E81C006EFC0EDBCFE9FFFD0EDBCFEAFF7C
:1008D000EE520050EF16DBC1E9FFDCC1EAFF160E55
:1008E000E926000EEA22EF6ADBC1E9FFDCC1EAFF7C
:1008F000120EEB6A130EEB6AE552E5CFDAFFE7CF93
:10090000D9FF1200D9CFE6FFDACFE6FFE1CFD9FF5A
:10091000E2CFDAFFE652E652FC0EDBCFE9FFFD0E36
:10092000DBCFEAFFEE52EF6AFC0EDBCFE9FFFD0EF4
:10093000DBCFEAFF060EE926000EEA22E9CF00F03F
:10094000EACF01F000C0DEFF01C0DDFFDFCFE9FF2D
:10095000DF2A010EDBCFEAFF01E3DB2AEF6AE55273
:10096000E552E552E5CFDAFFE7CFD9FF1200D9CF44
:10097000E6FFDACFE6FFE1CFD9FFE2CFDAFF060EDE
:10098000E12402E3E168E652E16ED950020FE96E1C
:10099000DACFEAFF000EEA22B60EEE6E000EED6E22
:1009A000D950040FE96EDACFEAFF000EEA22BD0E3D
:1009B000EE6E000EED6EDE6ADD6ADECF00F0DDCF9A
:1009C00001F0026A036AD8900350000A08E6090E93
:1009D000005C000E0158000E0258000E035830E271
:1009E000020EDBCFE9FF030EDBCFEAFFEF6A020E58
:1009F000DBCFE9FF030EDBCFEAFF040EE926000E92
:100A0000EA22040EDBCFEEFF050EDBCFEDFFD9505F
:100A1000020FE96E000EDA20EA6E070EEE26000ED7
:100A2000EF22D950040FE96E000EDA20EA6E070EAD
:100A3000EE26000EEF22DF2A010E01E3DB2ABDD7EE
:100A4000020EDBCFE9FF030EDBCFEAFFEF6A020EF7
:100A5000DBCFE9FF030EDBCFEAFF040EEB6A050EE6
:100A6000EB6A0001B60EB46F000EB56F060EE15CC6
:100A700002E2E16AE552E16EE552E5CFDAFFE7CF47
:100A8000D9FF120002015F6B606B616B626B010149
:100A90006A6B01016C6B0101726B0101716B0001EA
:100AA000B06BB16BB26BB36B0101736B746B756B35
:100AB000766B0101016B026B036B046B0001FD6B34
:100AC000FE6BFF6B006B0101056B1200D9CFE6FFD7
:100AD000DACFE6FFE1CFD9FFE2CFDAFFE652E65206
:100AE000E652E65201016F6BD950020FE96EDACF80
:100AF000EAFF000EEA22700EEE6E010EED6EDE6A67
:100B0000DD6ADECF00F0DDCF01F0010E005C000EEB
:100B100001580FE2020EDBCFE9FFDB2A030EDBCF29
:100B2000EAFF01E3DB2AEF6ADF2A010E01E3DB2A99
:100B3000E8D701016D6B01016E6B0101DF6BE06BAA
:100B40000101DB6BDC6B040EE15C02E2E16AE55261
:100B5000E16EE552E5CFDAFFE7CFD9FF1200030ED1
:100B6000E66EE66A000EE66EE66A640EE66EE66A19
:100B7000E66AE66ADA0EE66E010EE66EE668E6689A
:100B8000030EE66E770EE66E010EE66E000EE66E62
:100B9000E66A040EE66E0E0EE66E000EE66ED5EC0C
:100BA00010F0006E140EE15C02E2E16AE552E16EC3
:100BB00000501200030EE66EE66A000EE66EE66A6C
:100BC000640EE66EE66AE66AE66A690EE66E010E95
:100BD000E66EFE0EE66EE668020EE66E060EE66E47
:100BE000010EE66E000EE66EE66A600EE66E0E0E12
:100BF000E66E000EE66ED5EC10F0006E140EE15CB1
:100C000002E2E16AE552E16E00501200D9CFE6FF40
:100C1000DACFE6FFE1CFD9FFE2CFDAFFE652E652C4
:100C2000E652E652E6520101E16BE26BDF6A040E26
:100C3000DF5C0DE2EA6ADF34FE0BEA36E96EE30EB2
:100C4000E926010EEA22EE6AED6ADF2AF0D7D950D2
:100C5000010FE96EDACFEAFF000EEA22EB0EEE6E2C
:100C6000010EED6ED950030FE96EDACFEAFF000EE8
:100C7000EA22080EEE6E020EED6EDF6A030EDF5CF6
:100C800026E2010EDBCFE9FF020EDBCFEAFF0E0EFC
:100C9000E926000EEA22030EDBCFEEFF040EDBCFC7
:100CA000EDFFD950010FE96E000EDA20EA6E1D0E3D
:100CB000EE26000EEF22D950030FE96E000EDA2067
:100CC000EA6E1D0EEE26000EEF22DF2AD7D7010EA8
:100CD000DBCFE9FF020EDBCFEAFF0E0EEB6A0F0E51
:100CE000EB6A0101EB0EDD6F010EDE6F050EE15CBC
:100CF00002E2E16AE552E16EE552E5CFDAFFE7CFC5
:100D0000D9FF1200D9CFE6FFDACFE6FFE1CFD9FF56
:100D1000E2CFDAFFE652E652C00EF214DF6E800E2A
:100D2000D0143F09F21601016A5162E101016C51D0
:100D30005FE1E20E006E3A0E016E000E026E6FC1B0
:100D400003F0046A056A00500324F36E0150042086
:100D5000F46E02500520F86EF4CFF7FFF3CFF6FFE4
:100D60000800010EF5CFDBFFE20E016E3A0E026EB7
:100D7000000E036E010EDB50EA6A700FE96E010E81
:100D8000EA22EFCF04F0056A066A01500424F36EEC
:100D900002500520F46E03500620F86EF4CFF7FFE2
:100DA000F3CFF6FF0800F5CF00F0010EDB50080D81
:100DB000F350002401016E6F01016D5101016E5D60
:100DC00017E001016E51E96EEA6AD890E936EA3619
:100DD000E30EE926010EEA22EECFDFF1EDCFE0F1DE
:100DE0000001B02B000EB123B223B323D1EC1AF0D3
:100DF000DF50F212E552E552E552E5CFDAFFE7CFD8
:100E0000D9FF1200D9CFE6FFDACFE6FFE1CFD9FF55
:100E1000E2CFDAFFE652FC0EDBCF1AF0FD0EDBCF9D
:100E20001BF0FC0E1AC0DBFFFD0E1BC0DBFFC00E6B
:100E3000F214DF6E800ED0143F09F2160101732BFD
:100E4000000E742375237623DF50F2128CEC1AF017
:100E5000EED7E552E552E5CFDAFFE7CFD9FF120032
:100E6000D9CFE6FFDACFE6FFE1CFD9FFE2CFDAFF55
:100E70000A0EE12402E3E168E652E16EFC0EDBCFEC
:100E80001AF0FD0EDBCF1BF0FC0E1AC0DBFFFD0ECF
:100E90001BC0DBFF0101055108E1C80EE66EE66AE2
:100EA0008AEC16F0E552E552F5D7FDC018F0FEC009
:100EB00019F0FFC01AF000C11BF0640E1D6E1E6A0F
:100EC0001F6A206A62EC20F0050E18C0DBFF060ED8
:100ED00019C0DBFF070E1AC0DBFF080E1BC0DBFFCB
:100EE000C00EF214DF6E800ED0143F09F21673C1EB
:100EF00001F174C102F175C103F176C104F1010E73
:100F000073C1DBFF020E74C1DBFF030E75C1DBFF93
:100F1000040E76C1DBFF0101736B746B756B766B2E
:100F2000DF50F212D950050FE96E000EDA20EA6E9A
:100F3000D880000EEE54000EEE54000EEE54000E5B
:100F4000EE5442E2640E046E056A066A076A010EF8
:100F5000DBCF08F0020EDBCF09F0030EDBCF0AF087
:100F6000040EDBCF0BF008C018F009C019F00AC05E
:100F70001AF00BC01BF0050EDBCF1DF0060EDBCF09
:100F80001EF0070EDBCF1FF0080EDBCF20F062EC67
:100F900020F01850045C006E19500558016E1A506C
:100FA0000658026E1B500758036E090E00C0DBFF87
:100FB000090EDBCF00F0003404E2090EDBCFFCF0B9
:100FC00002D00001FC6B1DD00001FC6BFDC018F0CD
:100FD000FEC019F0FFC01AF000C11BF0640E1D6EB8
:100FE0001E6A1F6A206A62EC20F0050E18C0DBFF43
:100FF000060E19C0DBFF070E1AC0DBFF080E1BC070
:10100000DBFF7CEC1AF0640EE66EE66A8AEC16F002
:10101000E552E55265D70A0EE15C02E2E16AE5526B
:10102000E16EE552E5CFDAFFE7CFD9FF1200D9CF65
:10103000E6FFDACFE6FFE1CFD9FFE2CFDAFFE652F3
:10104000E652E652C00EF214DF6E800ED0143F0955
:10105000F216010EDDC1DBFF020EDEC1DBFFD9504F
:10106000010FE96E000EDA20EA6EEE50ED1001E19C
:10107000B9D1010EDBCFE9FF020EDBCFEAFF0E0E86
:10108000E926000EEA22EECFDDF1EDCFDEF1DF50F2
:10109000F212010EDBCFE9FF020EDBCFEAFFFB0EFF
:1010A000DBCFEEFFFC0EDBCFEDFF010EDBCFE9FF68
:1010B000020EDBCFEAFF170EE926000EEA22FD0E34
:1010C000DBCFEFFF010EDBCFE9FF020EDBCFEAFF44
:1010D000160EE926000EEA22EF6A010EDBCFE9FFC9
:1010E000020EDBCFEAFF140EEB6A150EEB6A010E5F
:1010F000DBCFE9FF020EDBCFEAFF020EE926000E8E
:10110000EA22F10EDBCFEEFFF20EDBCFEDFF010E98
:10111000DBCFE9FF020EDBCFEAFF060EE926000E69
:10112000EA22F30EDBCFEEFFF40EDBCFEEFFF50E7F
:10113000DBCFEEFFF60EDBCFEEFF010EDBCFE9FFDC
:10114000020EDBCFEAFF040EE926000EEA22F90EBA
:10115000DBCFEEFFFA0EDBCFEDFF010EDBCFE9FFB9
:10116000020EDBCFEAFF0A0EE926000EEA22EF0E9E
:10117000DBCFEEFFF00EDBCFEDFF010EDBCFE9FFA3
:10118000020EDBCFEAFF0C0EE926000EEA22F70E74
:10119000DBCFEEFFF80EDBCFEDFF010EDBCFE9FF7B
:1011A000020EDBCFEAFF1C0EE926000EEA22EF6AF0
:1011B000FD0EDB40E840E8401F0BE66E010EDBCF82
:1011C000E9FF020EDBCFEAFF190EE926000EEA2244
:1011D000E552E750EF6EDA0E006E3A0E016E000E29
:1011E000026E010EDBCFE9FF020EDBCFEAFF190E24
:1011F000E926000EEA22EFCF03F0046A056A0050E8
:101200000324F36E01500420F46E02500520F86EA2
:10121000F4CFF7FFF3CFF6FF0800F550E66E010EAE
:10122000DBCFE9FF020EDBCFEAFF1B0EE926000E43
:10123000EA22E552E750EF6EFD0EDB50070BE66E3B
:10124000010EDBCFE9FF020EDBCFEAFF180EE92625
:10125000000EEA22E552E750EF6EDA0E006E3A0E0B
:10126000016E000E026E010EDBCFE9FF020EDBCF36
:10127000EAFF180EE926000EEA22EFCF03F0046A17
:10128000056A00500324F36E01500420F46E0250EE
:101290000520F86EF4CFF7FFF3CFF6FF0800F55006
:1012A000E66E010EDBCFE9FF020EDBCFEAFF1A0E7E
:1012B000E926000EEA22E552E750EF6E010EDBCF81
:1012C000E9FF020EDBCFEAFF120EEB6A130EEB6AA8
:1012D000010EDBCFE6FF020EDBCFE6FF7EEC1AF05D
:1012E000E552E552010EDBCFE6FF020EDBCFE6FF53
:1012F0005EEC1AF0E552E552C00EF214DF6E800E7D
:10130000D0143F09F216FD0EEA6ADB34FE0BEA3612
:10131000E96EE30EE926010EEA22010EDBCFEEFFB5
:10132000020EDBCFEDFF010EDBCFE9FF020EDBCFBC
:10133000EAFF0E0EE926000EEA22E1C1EEFFE2C14D
:10134000EDFF010EDBCFE9FF020EDBCFEAFF100E4F
:10135000EB6A110EEB6A0101E151E2110EE0E1C10D
:10136000E9FFE2C1EAFF100EE926000EEA22010EB3
:10137000DBCFEEFF020EDBCFEDFF010EDBCFE1F1A5
:10138000020EDBCFE2F1010EDBCFE9FF020EDBCF75
:10139000EAFF1B0EE926000EEA22EF5001016F134F
:1013A000010EDBCFE9FF020EDBCFEAFF1A0EE926C2
:1013B000000EEA22EFCF00F0010EDBCFE9FF020EB4
:1013C000DBCFEAFF190EE926000EEA22EF50EA6AA7
:1013D000700FE96E010EEA220050EF12DF50F21298
:1013E000000E04D0DF50F212460E00D0E552E55256
:1013F000E552E552E5CFDAFFE7CFD9FF1200D9CFAA
:10140000E6FFDACFE6FFE1CFD9FFE2CFDAFFE6521F
:10141000E652E652D950FC0FE96EFF0EDA20EA6E72
:10142000EE50ED1003E1F36AF46A49D0FC0EDBCF15
:10143000E9FFFD0EDBCFEAFFEF50030803E0F36A9C
:10144000F46A3DD0C00EF214DF6E800ED0143F0956
:10145000F216FC0EDBCFE9FFFD0EDBCFEAFF020E3A
:10146000E926000EEA22010EEECFDBFF020EEDCFE1
:10147000DBFFD950010FE96E000EDA20EA6E000E94
:10148000D880EE54000EED540DE2FC0EDBCFE9FFE8
:10149000FD0EDBCFEAFF020EE926000EEA22EE0681
:1014A000000EEF5ADF50F212010EDBCF00F0020EF9
:1014B000DBCF01F000C0F3FF01C0F4FF00D0E55224
:1014C000E552E552E552E5CFDAFFE7CFD9FF12004A
:1014D000D9CFE6FFDACFE6FFE1CFD9FFE2CFDAFFDF
:1014E000E652E652E65201016A51000803E2F36A4D
:1014F000F46A5FD0C00EF214DF6E800ED0143F0984
:10150000F216010EB4C0DBFF020EB5C0DBFF000116
:10151000B451B5110CE0B4C0E9FFB5C0EAFF040E48
:10152000E926000EEA22EECFB4F0EDCFB5F0DF50A1
:10153000F212D950010FE96E000EDA20EA6EEE5079
:10154000ED102CE0010EDBCFE9FF020EDBCFEAFF4E
:10155000030EEF6E010EDBCFE9FF020EDBCFEAFFD9
:10156000020EE926000EEA22FC0EDBCFEEFFFD0E96
:10157000DBCFEDFF010EDBCFE9FF020EDBCFEAFF91
:10158000040EEB6A050EEB6A010EDBCFE6FF020EDE
:10159000DBCFE6FF82EC04F0E552E552010EDBCF33
:1015A00000F0020EDBCF01F000C0F3FF01C0F4FF3A
:1015B00000D0E552E552E552E552E5CFDAFFE7CF3C
:1015C000D9FF1200D9CFE6FFDACFE6FFE1CFD9FF8E
:1015D000E2CFDAFFE652E65201016A51000813E257
:1015E000F90EDBCFE9FFFA0EDBCFEAFF8C0EEF6ED0
:1015F000FC0EDBCF00F0FD0EDBCF01F000C0F3FFEF
:1016000001C0F4FFF5D0D950FC0FE96EFF0EDA20CF
:10161000EA6EEE50ED1013E1F90EDBCFE9FFFA0EA2
:10162000DBCFEAFF040EEF6EFC0EDBCF00F0FD0E09
:10163000DBCF01F000C0F3FF01C0F4FFD9D0FC0EF6
:10164000DBCFE9FFFD0EDBCFEAFFEF50030813E02D
:10165000F90EDBCFE9FFFA0EDBCFEAFF010EEF6EEA
:10166000FC0EDBCF00F0FD0EDBCF01F000C0F3FF7E
:1016700001C0F4FFBDD0C00EF214DF6E800ED01496
:101680003F09F216FC0EDBCFE9FFFD0EDBCFEAFFD0
:10169000EE52EF5004E0DE52010EDD6E02D0010E7C
:1016A000DB6AFB0EDB50010A43E0010A01E08BD04C
:1016B000010EDB5028E1FC0EDBCFE9FFFD0EDBCF96
:1016C000EAFFEF6AFC0EDBCFE9FFFD0EDBCFEAFF9E
:1016D000040EE926000EEA22B4C0EEFFB5C0EDFF0D
:1016E000FC0EDBCFB4F0FD0EDBCFB5F0DF50F21215
:1016F000F90EDBCFE9FFFA0EDBCFEAFFEF6AF36A00
:10170000F46A76D015D0DF50F212F90EDBCFE9FF84
:10171000FA0EDBCFEAFF080EEF6EFC0EDBCF00F017
:10172000FD0EDBCF01F000C0F3FF01C0F4FF60D07D
:10173000FC0EDBCFE9FFFD0EDBCFEAFFEE52EF50F0
:1017400016E0010EE66E000EE66EE66AFC0EDBCFDA
:10175000E6FFFD0EDBCFE6FF8EEC02F0006E050E1D
:10176000E15C02E2E16AE552E16E0050E1D7FC0E75
:10177000DBCFE9FFFD0EDBCFEAFFEF6AFC0EDBCF2C
:10178000E9FFFD0EDBCFEAFF040EE926000EEA2298
:10179000B4C0EEFFB5C0EDFFFC0EDBCFB4F0FD0E24
:1017A000DBCFB5F0DF50F212010EDB0402E182EC78
:1017B00006F0F90EDBCFE9FFFA0EDBCFEAFFEF6AA6
:1017C000F36AF46A15D0DF50F212F90EDBCFE9FFAD
:1017D000FA0EDBCFEAFF070EEF6EFC0EDBCF00F058
:1017E000FD0EDBCF01F000C0F3FF01C0F4FF00D01D
:1017F000E552E552E552E5CFDAFFE7CFD9FF120017
:10180000D9CFE6FFDACFE6FFE1CFD9FFE2CFDAFFAB
:10181000E65201016A51000809E2F80EDBCFE9FF48
:10182000F90EDBCFEAFF020EEF6EACD0D950FC0F01
:10183000E96EFF0EDA20EA6EEE50ED1009E1F80EC7
:10184000DBCFE9FFF90EDBCFEAFF040EEF6E9AD093
:10185000FC0EDBCFE9FFFD0EDBCFEAFFEF50030804
:1018600009E0F80EDBCFE9FFF90EDBCFEAFF010E4E
:10187000EF6E88D0C00EF214DF6E800ED0143F09D8
:10188000F216FC0EDBCFE9FFFD0EDBCFEAFF020E06
:10189000E926000EEA22000ED880EE54000EED5428
:1018A00017E2FC0EDBCFE9FFFD0EDBCFEAFF020EF5
:1018B000E926000EEA22EE06000EEF5ADF50F21281
:1018C000F80EDBCFE9FFF90EDBCFEAFFEF6A5AD063
:1018D000DBC1E9FFDCC1EAFF160EE926000EEA22B1
:1018E000EF80DBC1E9FFDCC1EAFF140EE926000E40
:1018F000EA22FA0EDBCFEEFFFB0EDBCFEDFFFC0E94
:10190000DBCFE6FFFD0EDBCFE6FFBDEC03F0E552DB
:10191000E552DF50F21282EC06F0C00EF214DF6ED8
:10192000800ED0143F09F216DBC1E9FFDCC1EAFFEB
:10193000160EEB50010B15E0FC0EDBCFE6FFFD0EA3
:10194000DBCFE6FF2CEC04F0E552E552DF50F2125B
:10195000F80EDBCFE9FFF90EDBCFEAFF0A0EEF6EE0
:1019600011D0DBC1E9FFDCC1EAFF120EEB6A130EF6
:10197000EB6ADF50F212F80EDBCFE9FFF90EDBCF96
:10198000EAFFEF6AE552E552E5CFDAFFE7CFD9FF8C
:101990001200D9CFE6FFDACFE6FFE1CFD9FFE2CFE1
:1019A000DAFFE652D950FC0FE96EFF0EDA20EA6E3C
:1019B000EE50ED1002E1040E65D0FC0EDBCFE9FF26
:1019C000FD0EDBCFEAFFEF50030802E0010E5AD014
:1019D000C00EF214DF6E800ED0143F09F216FC0E1A
:1019E000DBCFE9FFFD0EDBCFEAFFEE52EF501BE04D
:1019F000010EE66E000EE66EE66AFC0EDBCFE6FF39
:101A0000FD0EDBCFE6FF8EEC02F0006E050EE15C12
:101A100002E2E16AE552E16E0050DF50F21282EC20
:101A200006F0000E2FD0FC0EDBCFE9FFFD0EDBCF62
:101A3000EAFF020EE926000EEA22EECF00F0EFCF19
:101A400001F0026AD8900250000A06E6FF0E005C20
:101A5000FF0E0158000E025811E2FC0EDBCFE9FF29
:101A6000FD0EDBCFEAFF020EE926000EEA22EE2A87
:101A7000000EEF22DF50F212000E04D0DF50F212FF
:101A8000320E00D0E552E552E5CFDAFFE7CFD9FFBD
:101A90001200D9CFE6FFDACFE6FFE1CFD9FFE2CFE0
:101AA000DAFFE652E652E652E652E652D950FC0F11
:101AB000E96EFF0EDA20EA6EEE50ED1002E1040E40
:101AC00083D0FC0EDBCFE9FFFD0EDBCFEAFFEF504A
:101AD000030802E0010E78D0C00EF214DF6E800E13
:101AE000D0143F09F216FC0EDBCFE9FFFD0EDBCF71
:101AF000EAFFEE52EF50E66EFA0EDBCFE9FFFB0E87
:101B0000DBCFEAFF030EE926000EEA22E552E7509A
:101B1000EF6EFC0EDBCFE9FFFD0EDBCFEAFF060E1A
:101B2000E926000EEA22E9CF00F0EACF01F0010E2B
:101B300000C0DBFF020E01C0DBFFFA0EDBCFE9FFC6
:101B4000FB0EDBCFEAFF020EE926000EEA22E9CF08
:101B500000F0EACF01F0030E00C0DBFF040E01C06D
:101B6000DBFF010EDBCFE9FFDB2A020EDBCFEAFF52
:101B700001E3DB2AEF50E66E030EDBCFE9FFDB2A41
:101B8000040EDBCFEAFF01E3DB2AE552E750EF6EFC
:101B9000FC0EDBCFE9FFFD0EDBCFEAFF020EE926EC
:101BA000000EEA22EECF00F0EFCF01F0FA0EDBCF0D
:101BB000E9FFFB0EDBCFEAFF00C0EEFF01C0EDFF47
:101BC000DF50F212000E00D0006E050EE15C02E262
:101BD000E16AE552E16E0050E552E5CFDAFFE7CF6A
:101BE000D9FF1200D9CFE6FFDACFE6FFE1CFD9FF68
:101BF000E2CFDAFF090EE12402E3E168E652E16E8A
:101C0000030EF36EFD0EDBCFF4FFF350F45C04E340
:101C1000FD0EDB50FF0808E1030EF36EFC0EDBCF78
:101C2000F4FFF350F45C02E32A0EEED1C00EF2147E
:101C3000DF6E800ED0143F09F216FC0EEA6ADB3428
:101C4000FE0BEA36E96EE30EE926010EEA22EE50BB
:101C5000ED1005E0DF50F212280ED6D1D5D1FC0EE2
:101C6000EA6ADB34FE0BEA36E96EE30EE926010E82
:101C7000EA22010EEE6EED6ADF50F212FC0EDB403E
:101C8000E840E8401F0BE76E060EE7CFDBFFDA0EF9
:101C9000006E3A0E016E000E026E060EDBCF03F0F0
:101CA000046A056A00500324F36E01500420F46EA8
:101CB00002500520F86EF4CFF7FFF3CFF6FF0800CF
:101CC000080EF5CFDBFFFC0EDB50070BE76E050EB1
:101CD000E7CFDBFFDA0E006E3A0E016E000E026EE9
:101CE000050EDBCF03F0046A056A00500324F36E8F
:101CF00001500420F46E02500520F86EF4CFF7FF77
:101D0000F3CFF6FF0800070EF5CFDBFFC00EF2148D
:101D1000DF6E800ED0143F09F216FD0EDB50FF0877
:101D20000AE1DBC1E9FFDCC1EAFF170EEB50E76E09
:101D3000FD0EE7CFDBFFFD0EEA6ADB34FE0BEA3671
:101D4000E96EE30EE926010EEA22030EEECFDBFF79
:101D5000040EEDCFDBFFD950030FE96E000EDA2041
:101D6000EA6EEE50ED1001E13FD1FD0EEA6ADB3480
:101D7000FE0BEA36E96EE30EE926010EEA22EE6A70
:101D8000ED6A030EDBCFE9FF040EDBCFEAFF1A0E8C
:101D9000E926000EEA22EFCF00F0030EDBCFE9FFC9
:101DA000040EDBCFEAFF190EE926000EEA22EF50FF
:101DB000EA6A700FE96E010EEA22EF5000143CE06F
:101DC000030EDBCFE9FF040EDBCFEAFF1A0EE92694
:101DD000000EEA22EF1C006E030EDBCFE9FF040EBB
:101DE000DBCFEAFF190EE926000EEA22EF50EA6A7D
:101DF000700FE96E010EEA220050EF16EF500DE170
:101E0000030EDBCFE9FF040EDBCFEAFF1B0EE92652
:101E1000000EEA22EF1C01016F17080EDB500101D2
:101E20006F13060EDB50EA6A700FE96E010EEA22AC
:101E3000070EDB50EF1280D0030EDBCFE9FF040E5C
:101E4000DBCFEAFF120EE926000EEA22010EEECFEA
:101E5000DBFF020EEDCFDBFFD950010FE96E000E64
:101E6000DA20EA6EEE50ED1067E0030EDBCFE9FFFB
:101E7000040EDBCFEAFF1A0EE926000EEA22EF1C61
:101E8000026E010EDBCFE9FF020EDBCFEAFF060E8A
:101E9000E926000EEA22E9CF00F0EACF01F0030EB6
:101EA000DBCFE9FF040EDBCFEAFF190EE926000EB7
:101EB000EA22EF500F010024E96E000E0120EA6EC5
:101EC0000250EF16EF5015E1030EDBCFE9FF040ED1
:101ED000DBCFEAFF1B0EE926000EEA22EF1C006EA4
:101EE000010EDBCFE9FF020EDBCFEAFFEE5200501E
:101EF000EF16010EDBCFE9FF020EDBCFEAFFEE5259
:101F0000080EDB50EF12010EDBCFE9FF020EDBCF34
:101F1000EAFF060EE926000EEA22E9CF00F0EACF3A
:101F200001F0060EDB500F010024E96E000E0120C7
:101F3000EA6E070EDB50EF12FC0EEA6ADB34FE0B92
:101F4000EA36E96EE30EE926010EEA22030EDBCF44
:101F5000EEFF040EDBCFEDFF030EDBCFE9FF040E37
:101F6000DBCFEAFF170EE926000EEA22FC0EDBCFDC
:101F7000EFFF030EDBCFE9FF040EDBCFEAFF190E04
:101F8000E926000EEA22060EDBCFEFFF030EDBCFC1
:101F9000E9FF040EDBCFEAFF180EE926000EEA2265
:101FA000050EDBCFEFFF030EDBCFE9FF040EDBCF27
:101FB000EAFF1B0EE926000EEA22080EDBCFEFFF38
:101FC000030EDBCFE9FF040EDBCFEAFF1A0EE92692
:101FD000000EEA22070EDBCFEFFFDF50F21282EC99
:101FE00006F0000E11D010D0FC0EEA6ADB34FE0BB6
:101FF000EA36E96EE30EE926010EEA22EE6AED6AA0
:10200000DF50F212290E00D0006E090EE15C02E2F0
:10201000E16AE552E16E0050E552E5CFDAFFE7CF25
:10202000D9FF1200D9CFE6FFDACFE6FFE1CFD9FF23
:10203000E2CFDAFFE652E652E652E652F60EDB5007
:10204000030802E22A0EA3D0C00EF214DF6E800E47
:10205000D0143F09F216F60EEA6ADB34FE0BEA36BC
:10206000E96EE30EE926010EEA22EE50ED1001E0E2
:102070008AD0F60EEA6ADB34FE0BEA36E96EE30E2E
:10208000E926010EEA22010EEE6EED6ADF50F21231
:10209000000EE66EE66AF70EDBCFE6FFF80EDBCF4A
:1020A000E6FFF90EDBCFE6FFFA0EDBCFE6FFFB0E15
:1020B000DBCFE6FFFC0EDBCFE6FFFD0EDBCFE6FF5E
:1020C00054EC19F0006E090EE15C02E2E16AE5529F
:1020D000E16E0050DE52F3CFDEFFF4CFDDFFDD52C4
:1020E000000EE66EE66A000EE66EE66AE66AE66AEC
:1020F000E66AE66A000EE66EE66A000EE66EE66ADC
:10210000010EDBCFE6FF020EDBCFE6FFF60EDBCFE4
:10211000E6FF17EC08F0006E0F0EE15C02E2E16AE8
:10212000E552E16E0050E76E030EE7CFDBFF030ED2
:10213000DB5011E1C00EF214DF6E800ED0143F09A7
:10214000F2160101722BDF50F2120101710502E15A
:1021500082EC06F015D0C00EF214DF6E800ED014A3
:102160003F09F216F60EEA6ADB34FE0BEA36E96E38
:10217000E30EE926010EEA22EE6AED6ADF50F21262
:10218000030EDB5004D0DF50F212280E00D0006E98
:10219000040EE15C02E2E16AE552E16E0050E552B4
:1021A000E5CFDAFFE7CFD9FF1200D9CFE6FFDACFCC
:1021B000E6FFE1CFD9FFE2CFDAFFE652E652E65280
:1021C000E652F60EDB50030802E22A0EDBD0C00E08
:1021D000F214DF6E800ED0143F09F216F60EEA6A92
:1021E000DB34FE0BEA36E96EE30EE926010EEA2245
:1021F000EE50ED1001E0C2D0F60EEA6ADB34FE0BC1
:10220000EA36E96EE30EE926010EEA22010EEE6ED1
:10221000ED6ADF50F212EA0EDB50010B04E1EA0E28
:10222000DB50020B17E0EE0EDBCFE6FFEF0EDBCF4D
:10223000E6FFE66AF70EDBCFE6FFF80EDBCFE6FF40
:102240001AEC21F0006E050EE15C02E2E16AE55253
:10225000E16E0050EA0EDBCFE6FFEB0EDBCFE6FFD0
:10226000F70EDBCFE6FFF80EDBCFE6FFF90EDBCF94
:10227000E6FFFA0EDBCFE6FFFB0EDBCFE6FFFC0E40
:10228000DBCFE6FFFD0EDBCFE6FF54EC19F0006E6E
:10229000090EE15C02E2E16AE552E16E0050DE52B5
:1022A000F3CFDEFFF4CFDDFFDD52EA0EDBCFE6FF3A
:1022B000EB0EDBCFE6FFEC0EDBCFE6FFED0EDBCF68
:1022C000E6FFD950EE0FE96EFF0EDA20EA6EEECF90
:1022D000E6FFEECFE6FFEECFE6FFEFCFE6FFF40E30
:1022E000DBCFE6FFF50EDBCFE6FFF20EDBCFE6FF3E
:1022F000F30EDBCFE6FF010EDBCFE6FF020EDBCFF6
:10230000E6FFF60EDBCFE6FF17EC08F0006E0F0ECF
:10231000E15C02E2E16AE552E16E0050E76E030E15
:10232000E7CFDBFF030EDB5011E1C00EF214DF6ECE
:10233000800ED0143F09F2160101722BDF50F21209
:102340000101710502E182EC06F015D0C00EF21415
:10235000DF6E800ED0143F09F216F60EEA6ADB3407
:10236000FE0BEA36E96EE30EE926010EEA22EE6A7A
:10237000ED6ADF50F212030EDB5004D0DF50F21290
:10238000280E00D0006E040EE15C02E2E16AE55224
:10239000E16E0050E552E5CFDAFFE7CFD9FF12003A
:1023A000D9CFE6FFDACFE6FFE1CFD9FFE2CFDAFF00
:1023B000060EE12402E3E168E652E16E01016A5192
:1023C000000802E23F0EAFD1FD0EDB50030802E130
:1023D0003D0EA9D1030EF36EFD0EDBCFF4FFF350DB
:1023E000F45C06E3FD0EDB50FF0802E02A0E9BD1F1
:1023F000C00EF214DF6E800ED0143F09F216FD0EEF
:10240000DB50FF080AE1DBC1E9FFDCC1EAFF170E80
:10241000EB50E76EFD0EE7CFDBFFFD0EEA6ADB3423
:10242000FE0BEA36E96EE30EE926010EEA22030E00
:10243000EECFDBFF040EEDCFDBFFD950030FE96ECB
:10244000000EDA20EA6EEE50ED1001E168D1030EC5
:10245000DBCFE9FF040EDBCFEAFF1A0EE926000E00
:10246000EA22EF1C006E030EDBCFE9FF040EDBCF88
:10247000EAFF190EE926000EEA22EF50EA6A700F11
:10248000E96E010EEA220050EF16EF500DE1030E47
:10249000DBCFE9FF040EDBCFEAFF1B0EE926000EBF
:1024A000EA22EF1C01016F17030EDBCFE9FF040ED8
:1024B000DBCFEAFF120EE926000EEA22010EEECF74
:1024C000DBFF020EEDCFDBFFD950010FE96E000EEE
:1024D000DA20EA6EEE50ED1044E0030EDBCFE9FFA8
:1024E000040EDBCFEAFF1A0EE926000EEA22EF1CEB
:1024F000026E010EDBCFE9FF020EDBCFEAFF060E14
:10250000E926000EEA22E9CF00F0EACF01F0030E3F
:10251000DBCFE9FF040EDBCFEAFF190EE926000E40
:10252000EA22EF500F010024E96E000E0120EA6E4E
:102530000250EF16EF5015E1030EDBCFE9FF040E5A
:10254000DBCFEAFF1B0EE926000EEA22EF1C006E2D
:10255000010EDBCFE9FF020EDBCFEAFFEE520050A7
:10256000EF16030EDBCFE9FF040EDBCFEAFF140EFC
:10257000EB6A150EEB6A030EDBCFE9FF040EDBCF2F
:10258000EAFF160EE926000EEA22EF6A01016C51FD
:10259000006E016AD890015004E6FF0E005C000E48
:1025A000015802E201016C2BDF50F2128DEC02F0B7
:1025B000C00EF214DF6E800ED0143F09F216010136
:1025C0006C51000802E201016C07030EDBCFE6FF4D
:1025D000040EDBCFE6FF6CEC1AF0E552E552010188
:1025E0007207FD0EEA6ADB34FE0BEA36E96EE30E93
:1025F000E926010EEA22EE6AED6A030EDBCFE9FF5F
:10260000040EDBCFEAFF100EE926000EEA22EE50A0
:10261000ED1023E1030EDBCFE9FF040EDBCFEAFF71
:102620000E0EE926000EEA22EE50EFCFEAFFE96E29
:10263000100EE926000EEA22EE6AED6A030EDBCFE9
:10264000E9FF040EDBCFEAFF0E0EE926000EEA22B8
:10265000EECFE1F1EDCFE2F148D0030EDBCFE9FFA1
:10266000040EDBCFEAFF0E0EE926000EEA22EECFC3
:1026700000F0EFCF01F0030EDBCFE9FF040EDBCF5C
:10268000EAFF100EE926000EEA22EE50EFCFEAFF35
:10269000E96E0E0EE926000EEA2200C0EEFF01C030
:1026A000EDFF030EDBCFE9FF040EDBCFEAFF100ED8
:1026B000E926000EEA22EECF00F0EFCF01F0030E84
:1026C000DBCFE9FF040EDBCFEAFF0E0EE926000E9A
:1026D000EA22EE50EFCFEAFFE96E100EE926000E77
:1026E000EA2200C0EEFF01C0EDFF030EDBCFE9FFE1
:1026F000040EDBCFEAFF0E0EE926000EEA22DDC152
:10270000EEFFDEC1EDFF030EDBCFDDF1040EDBCF0C
:10271000DEF1DF50F21282EC06F0000E04D0DF5042
:10272000F2123C0E00D0006E060EE15C02E2E16A9D
:10273000E552E16E0050E552E5CFDAFFE7CFD9FF71
:102740001200D9CFE6FFDACFE6FFE1CFD9FFE2CF23
:10275000DAFFE652E652E652E652E652FD0EDB5052
:10276000030802E13D0E61D0030EF36EFD0EDBCFD8
:10277000F4FFF350F45C06E3FD0EDB50FF0802E0CB
:102780002A0E53D0FD0EDB50FF0816E1C00EF214E6
:10279000DF6E800ED0143F09F216DBC1E9FFDCC109
:1027A000EAFF1C0EEB50E76E010EE7CFDBFFDF50B8
:1027B000F212010EDB5039D0C00EF214DF6E800E23
:1027C000D0143F09F216FD0EEA6ADB34FE0BEA363E
:1027D000E96EE30EE926010EEA22030EEECFDBFFDF
:1027E000040EEDCFDBFFD950030FE96E000EDA20A7
:1027F000EA6EEE50ED100FE0030EDBCFE9FF040EA2
:10280000DBCFEAFF1C0EE926000EEA223E0EEF6E39
:10281000020EDB6A05D00B0EF36E020EF3CFDBFF68
:10282000DF50F212020EDB5000D0006E050EE15CAC
:1028300002E2E16AE552E16E0050E552E5CFDAFFCF
:10284000E7CFD9FF1200D9CFE6FFDACFE6FFE1CF1D
:10285000D9FFE2CFDAFFE652E652E652030EF36EFC
:10286000FD0EDBCFF4FFF350F45C02E32A0E83D0BD
:10287000C00EF214DF6E800ED0143F09F216FD0E6A
:10288000EA6ADB34FE0BEA36E96EE30EE926010E56
:10289000EA22010EEECFDBFF020EEDCFDBFFD950B7
:1028A000010FE96E000EDA20EA6EEE50ED1004E141
:1028B000DF50F212640E5FD0010EDBCFE9FF020E93
:1028C000DBCFEAFF160EE926000EEA22EF50080BD6
:1028D0004EE0010EDBCFE9FF020EDBCFEAFF160E62
:1028E000E926000EEA22EF96EF503DE1010EDBCF24
:1028F000E9FF020EDBCFEAFF140EE926000EEA2202
:10290000EE50ED1030E1010EDBCFE9FF020EDBCF20
:10291000EAFF1B0EE926000EEA22EF5001016F13B9
:10292000010EDBCFE9FF020EDBCFEAFF1A0EE9262C
:10293000000EEA22EFCF00F0010EDBCFE9FF020E1E
:10294000DBCFEAFF190EE926000EEA22EF50EA6A11
:10295000700FE96E010EEA220050EF12DF50F21202
:1029600082EC06F002D0DF50F212000E04D0DF50ED
:10297000F212650E00D0E552E552E552E552E5CF80
:10298000DAFFE7CFD9FF1200D9CFE6FFDACFE6FFB3
:10299000E1CFD9FFE2CFDAFF0D0EE12402E3E168D7
:1029A000E652E16EFD0EDB50030806E2FD0EDB5041
:1029B000FF0802E02A0EEAD0FB0EDBCFE9FFFC0E97
:1029C000DBCFEAFFEE6AEE6AEE6AEE6AFB0EDBCF61
:1029D000E9FFFC0EDBCFEAFF040EE926000EEA2237
:1029E000EE6AEE6AEE6AEE6AC00EF214DF6E800ED8
:1029F000D0143F09F216FD0EDB50FF080AE1DBC1DF
:102A0000E9FFDCC1EAFF170EEB50E76EFD0EE7CFE2
:102A1000DBFFFD0EEA6ADB34FE0BEA36E96EE30EFD
:102A2000E926010EEA22010EEECFDBFF020EEDCF0A
:102A3000DBFFD950010FE96E000EDA20EA6EEE508E
:102A4000ED1004E1DF50F2120B0EA0D0010EDBCF2F
:102A5000E9FF020EDBCFEAFF0A0EE926000EEA22AA
:102A6000EECF00F0EFCF01F00050010B04E1DF509A
:102A7000F212820E8BD0050EDB6A060EDB6A070EA1
:102A8000DB6A080EDB6A010EDBCFE9FF020EDBCF4B
:102A9000EAFF060EE926000EEA22090EEECFDBFF62
:102AA0000A0EEECFDBFF0B0EEECFDBFF0C0EEECFF0
:102AB000DBFF010EDBCFE9FF020EDBCFEAFF040EE6
:102AC000E926000EEA22030EEECFDBFF040EEDCF67
:102AD000DBFFDF50F212030EDBCFE9FFDB06040E53
:102AE000DBCFEAFF01E2DB06EF500CE1D950050F26
:102AF000E96E000EDA20EA6EEE2A000EEE22EE22D9
:102B0000EE22E9D7FB0EDBCFE9FFFC0EDBCFEAFFBD
:102B1000050EDBCFEEFF060EDBCFEEFF070EDBCFA1
:102B2000EEFF080EDBCFEEFF090EDBCF04F00A0E3E
:102B3000DBCF05F00B0EDBCF06F00C0EDBCF07F082
:102B4000D950050FE96E000EDA20EA6EEE50045CF3
:102B5000006EEE500558016EEE500658026EEE50B3
:102B60000758036EFB0EDBCFE9FFFC0EDBCFEAFF5D
:102B7000040EE926000EEA2200C0EEFF01C0EEFFBF
:102B800002C0EEFF03C0EEFF000E00D0006E0D0E7F
:102B9000E15C02E2E16AE552E16E0050E552E5CF08
:102BA000DAFFE7CFD9FF1200D9CFE6FFDACFE6FF91
:102BB000E1CFD9FFE2CFDAFFE652E652E652E65223
:102BC000FD0EDB50030802E15B0E96D0030EF36EA0
:102BD000FD0EDBCFF4FFF350F45C06E3FD0EDB509B
:102BE000FF0802E02A0E88D0C00EF214DF6E800EBD
:102BF000D0143F09F216FD0EDB50FF080EE1DBC1D9
:102C0000E9FFDCC1EAFF170EEB50E76EFD0EE7CFE0
:102C1000DBFFDE52010EDD6E11D0DBC1E9FFDCC14E
:102C2000EAFF170EEB50F36EFD0EDB50F35C04E190
:102C3000DE52010EDD6E02D0010EDB6AFD0EEA6A85
:102C4000DB34FE0BEA36E96EE30EE926010EEA22DA
:102C5000020EEECFDBFF030EEDCFDBFFD950020FEC
:102C6000E96E000EDA20EA6EEE50ED1004E1DF505E
:102C7000F2125A0E41D0020EDBCFE9FF030EDBCF7A
:102C8000EAFF1A0EE926000EEA22EF1C006E020E81
:102C9000DBCFE9FF030EDBCFEAFF190EE926000EBA
:102CA000EA22EF50EA6A700FE96E010EEA22005044
:102CB000EF16EF500DE1020EDBCFE9FF030EDBCF85
:102CC000EAFF1B0EE926000EEA22EF1C01016F1736
:102CD000020EDBCFE9FF030EDBCFEAFF160EE9267B
:102CE000000EEA22EF86DF50F212010EDB0402E151
:102CF00082EC06F0000E00D0006E040EE15C02E2F1
:102D0000E16AE552E16E0050E552E5CFDAFFE7CF28
:102D1000D9FF1200D9CFE6FFDACFE6FFE1CFD9FF26
:102D2000E2CFDAFFE652D950FC0FE96EFF0EDA204F
:102D3000EA6E000ED880EE54000EED5439E2C00E5B
:102D4000F214DF6E800ED0143F09F216DBC1E9FFEA
:102D5000DCC1EAFF1A0EEB50E81C006EDBC1E9FF94
:102D6000DCC1EAFF190EEB50EA6A700FE96E010E42
:102D7000EA220050EF16EF5009E1DBC1E9FFDCC1A8
:102D8000EAFF1B0EEB50E81C01016F17DBC1E9FFE6
:102D9000DCC1EAFF140EE926000EEA22FC0EDBCFAE
:102DA000EEFFFD0EDBCFEDFFDF50F21282EC06F0FE
:102DB000E552E552E5CFDAFFE7CFD9FF1200D9CFD0
:102DC000E6FFDACFE6FFE1CFD9FFE2CFDAFF060E6A
:102DD000E12402E3E168E652E16EFD0EDB500008FB
:102DE00015E3FC0EDB50000811E3FB0EDB5000087E
:102DF0000DE3D950F90FE96EFF0EDA20EA6E000EEE
:102E0000D880EE54000EED5401E337D1FC0EDB50B8
:102E10003B0802E2510E33D1FB0EDB503B0802E2CD
:102E2000520E2DD1D950F90FE96EFF0EDA20EA6E5D
:102E3000E70ED880EE54030EED5402E2530E1FD17C
:102E4000FD0EDBCF04F0056A066A076A100E1D6EE0
:102E50000E0E1E6E1F6A206A04C018F005C019F01D
:102E600006C01AF007C01BF0F1EC1EF014C004F00D
:102E700015C005F016C006F017C007F0FC0EDBCF3A
:102E800008F0096A0A6A0B6A3C0E1D6E1E6A1F6A08
:102E9000206A08C018F009C019F00AC01AF00BC067
:102EA0001BF0F1EC1EF014C008F015C009F016C0BC
:102EB0000AF017C00BF008500426095005220A50EA
:102EC00006220B500722FB0EDBCF0CF00D6A0E6AB8
:102ED0000F6A04500C24006E05500D20016E065040
:102EE0000E20026E07500F20036E640E1D6E1E6AC8
:102EF0001F6A206A00C018F001C019F002C01AF061
:102F000003C01BF0F1EC1EF014C000F015C001F07E
:102F100016C002F017C003F0F90EDBCF10F0FA0E66
:102F2000DBCF11F0126A136A050E1026000E112273
:102F3000000E1222000E1322640E1D6E1E6A1F6AFE
:102F4000206A10C018F011C019F012C01AF013C096
:102F50001BF0F1EC1EF014C010F015C011F016C0FB
:102F600012F017C013F0E80E1D6E030E1E6E1F6ADE
:102F7000206A10C018F011C019F012C01AF013C066
:102F80001BF062EC20F018C010F019C011F01AC04C
:102F900012F01BC013F010500026115001221250E5
:102FA00002221350032200C0DFFF010E01C0DBFF2D
:102FB000020E02C0DBFF030E03C0DBFFD9CFE9FF27
:102FC000DACFEAFFEECF18F0EECF19F0EECF1AF01D
:102FD000EFCF1BF01D6A1E6A010E1F6E206A62ECA5
:102FE00020F0040E18C0DBFF050E19C0DBFFD9CF9F
:102FF000E9FFDACFEAFFEECF18F0EECF19F0EECF0F
:103000001AF0EFCF1BF01D6A1E6A010E1F6E206AB8
:1030100062EC20F014C0DEFF15C0DEFF16C0DEFF3C
:1030200017C0DDFFDD52DD52000EDBCFE6FF010EE3
:10303000DBCFE6FF6FDEE552E552D950040FE96EB3
:10304000000EDA20EA6E000ED880EE54000EED5429
:1030500012E2E66A800EE66E5DDEE552E552E66A51
:10306000800EE66E57DEE552E552040EDB06050ED5
:1030700001E2DB06E2D7000E02D0540E00D0006E53
:10308000060EE15C02E2E16AE552E16E0050E552B3
:10309000E5CFDAFFE7CFD9FF1200D9CFE6FFDACFCD
:1030A000E6FFE1CFD9FFE2CFDAFFE652E652E65281
:1030B000030EF36EFD0EDBCFF4FFF350F45C02E37E
:1030C0002A0E81D0C00EF214DF6E800ED0143F099C
:1030D000F216FD0EEA6ADB34FE0BEA36E96EE30E09
:1030E000E926010EEA22010EEECFDBFF020EEDCF44
:1030F000DBFFD950010FE96E000EDA20EA6EEE50C8
:10310000ED105DE0010EDBCFE9FF020EDBCFEAFF41
:10311000140EE926000EEA22EE50ED104CE0010EEE
:10312000DBCFE9FF020EDBCFEAFF140EEB6A150ED0
:10313000EB6A010EDBCFE9FF020EDBCFEAFF160ED2
:10314000E926000EEA22EF50080B30E1010EDBCF3A
:10315000E9FF020EDBCFEAFF1B0EE926000EEA2292
:10316000EF5001016F13010EDBCFE9FF020EDBCF41
:10317000EAFF1A0EE926000EEA22EFCF00F0010E58
:10318000DBCFE9FF020EDBCFEAFF190EE926000EC6
:10319000EA22EF50EA6A700FE96E010EEA2200504F
:1031A000EF12DF50F21282EC06F002D0DF50F21282
:1031B000000E09D004D0DF50F212500E04D0DF50C0
:1031C000F2120B0E00D0E552E552E552E552E5CF82
:1031D000DAFFE7CFD9FF1200D9CFE6FFDACFE6FF5B
:1031E000E1CFD9FFE2CFDAFFE652E652E652E652ED
:1031F000E652C00EF214DF6E800ED0143F09F216B4
:10320000010E5FC2DBFF020E60C2DBFF030E61C274
:10321000DBFF040E62C2DBFFDF50F212010EDBCFD8
:1032200000F0020EDBCF01F0030EDBCF02F0040E44
:10323000DBCF03F000C018F001C019F002C01AF093
:1032400003C01BF000D0050EE15C02E2E16AE5522A
:10325000E16EE552E5CFDAFFE7CFD9FF1200D9CF13
:10326000E6FFDACFE6FFE1CFD9FFE2CFDAFFE652A1
:10327000C00EF214DF6E800ED0143F09F216FA0E63
:10328000DBCF5FF2FB0EDBCF60F2FC0EDBCF61F237
:10329000FD0EDBCF62F2DF50F212E552E552E5CFD0
:0832A000DAFFE7CFD9FF1200AD
:0832A800D9CFE6FFDACFE6FF03
:1032B000E1CFD9FFE2CFDAFFE652E652F70EDBCFDD
:1032C000DEFFDBCFDDFFDFCFE9FFDF2A010EDBCF43
:1032D000EAFF01E3DB2AF90EDBCFEFFFDFCFE9FFE7
:1032E000DF2A010EDBCFEAFF01E3DB2AFA0EDBCF98
:1032F000EFFFDFCFE9FFDF2A010EDBCFEAFF01E3BB
:10330000DB2AEF68DFCFE9FFDF2A010EDBCFEAFF20
:1033100001E3DB2A1A0EEF6EDFCFE9FFDF2A010E91
:10332000DBCFEAFF01E3DB2A1B0EEF6EDFCFE9FF05
:10333000DF2A010EDBCFEAFF01E3DB2A1C0EEF6E72
:10334000DFCFE9FFDF2A010EDBCFEAFF01E3DB2A53
:103350001D0EEF6EDFCFE9FFDF2A010EDBCFEAFFA4
:1033600001E3DB2A1E0EEF6EDFCFE9FFDF2A010E3D
:10337000DBCFEAFF01E3DB2A1F0EEF6EDFCFE9FFB1
:10338000DF2A010EDBCFEAFF01E3DB2A2A0EEF6E14
:10339000DFCFE9FFDF2A010EDBCFEAFF01E3DB2A03
:1033A0002B0EEF6EDFCFE9FFDF2A010EDBCFEAFF46
:1033B00001E3DB2A2C0EEF6EDFCFE9FFDF2A010EDF
:1033C000DBCFEAFF01E3DB2A2D0EEF6EDFCFE9FF53
:1033D000DF2A010EDBCFEAFF01E3DB2A2E0EEF6EC0
:1033E000DFCFE9FFDF2A010EDBCFEAFF01E3DB2AB3
:1033F0002F0EEF6EDFCFE9FFDF2A010EDBCFEAFFF2
:1034000001E3DB2A3A0EEF6EDFCFE9FFDF2A010E80
:10341000DBCFEAFF01E3DB2A3B0EEF6EDFCFE9FFF4
:10342000DF2A010EDBCFEAFF01E3DB2A3C0EEF6E61
:10343000DFCFE9FFDF2A010EDBCFEAFF01E3DB2A62
:103440003D0EEF6EDFCFE9FFDF2A010EDBCFEAFF93
:1034500001E3DB2AFB0EDBCFEFFFDFCFE9FFDF2A43
:10346000010EDBCFEAFF01E3DB2AFC0EDBCFEFFF2F
:10347000DFCFE9FFDF2A010EDBCFEAFF01E3DB2A22
:10348000FD0EDBCFEFFFDFCFE9FFDF2A010EDBCF41
:10349000EAFF01E3DB2A010EEF6EDECF00F0DDCFA5
:1034A00001F000C0F3FF01C0F4FF00D0E552E55287
:1034B000E552E5CFDAFFE7CFD9FF1200D9CFE6FF1B
:1034C000DACFE6FFE1CFD9FFE2CFDAFFE552E5CF71
:1034D000DAFFE7CFD9FF1200D9CFE6FFDACFE6FF58
:1034E000E1CFD9FFE2CFDAFFE552E5CFDAFFE7CF50
:1034F000D9FF12000400120012001200D9CFE6FF1B
:10350000DACFE6FFE1CFD9FFE2CFDAFFE552E5CF30
:10351000DAFFE7CFD9FF1200120012001200EADF33
:103520000101010E716FDFC1E9FFE0C1EAFFEECFDB
:10353000E1FFEDCFE2FF1F0EFC1402E00600FBD717
:10354000FC5001E0FC6AE552E550E96E0500E550EB
:10355000FF6EE550FE6EE550FD6EE906F7E1E5CF42
:103560001BF0E5CF1AF0E5CF19F0E5CF18F0E5CF65
:10357000F4FFE5CFF3FFE5CFF8FFE5CFF7FFE5CFA9
:10358000F6FFE5CFDAFFE7CFD9FFE552E5CFEAFF57
:10359000E5CFE9FFE550E5CFE0FFE5CFD8FF10002C
:1035A0001200800ED0143F09F216D8CFE4FFE0CF0E
:1035B000E4FFE46EE9CFE4FFEACFE4FFE652D9CFBF
:1035C000E6FFDACFE6FFF6CFE6FFF7CFE6FFF8CF6C
:1035D000E6FFF3CFE6FFF4CFE6FF18C0E6FF19C021
:1035E000E6FF1AC0E6FF1BC0E6FFE96A1F0EFC14E7
:1035F00009E0FDCFE6FFFECFE6FFFFCFE6FF0600C6
:10360000E92AF4D7E9CFE6FFFC5001E0FC6ADBC110
:10361000E9FFDCC1EAFFE1CFEEFFE2CFEDFF6ADFB9
:10362000DFC1DBF1E0C1DCF16EC16DF1DFC1E9FFAB
:10363000E0C1EAFFEECFE1FFEDCFE2FFE552E5505A
:10364000E96E0500E550FF6EE550FE6EE550FD6E3B
:10365000E906F7E1E5CF1BF0E5CF1AF0E5CF19F069
:10366000E5CF18F0E5CFF4FFE5CFF3FFE5CFF8FFA6
:10367000E5CFF7FFE5CFF6FFE5CFDAFFE7CFD9FFDC
:10368000E552E5CFEAFFE5CFE9FFE550E5CFE0FF02
:10369000E5CFD8FF10001200D8CFE4FFE0CFE4FF61
:1036A000E46EE9CFE4FFEACFE4FFE652D9CFE6FFCC
:1036B000DACFE6FFF6CFE6FFF7CFE6FFF8CFE6FF7B
:1036C000F3CFE6FFF4CFE6FF18C0E6FF19C0E6FF30
:1036D0001AC0E6FF1BC0E6FF01016A2B6AEC21F06D
:1036E00039EC00F0E552E5CF1BF0E5CF1AF0E5CF5D
:1036F00019F0E5CF18F0E5CFF4FFE5CFF3FFE5CF04
:10370000F8FFE5CFF7FFE5CFF6FFE5CFDAFFE7CF2C
:10371000D9FFE552E5CFEAFFE5CFE9FFE550E5CF78
:10372000E0FFE5CFD8FF1000120006000600E552CA
:10373000E552E552E96A1F0EFC1409E0FDCFE6FFF1
:10374000FECFE6FFFFCFE6FF0600E92AF4D7E9CF78
:10375000E6FFFC5001E0FC6ADBC1E9FFDCC1EAFFE7
:10376000E1CFEEFFE2CFEDFFC5DEDFC1DBF1E0C16F
:10377000DCF16EC16DF1DFC1E9FFE0C1EAFFEECF20
:10378000E1FFEDCFE2FF1F0EFC1402E00600FBD7C5
:10379000FC5001E0FC6AE552E550E96E0500E55099
:1037A000FF6EE550FE6EE550FD6EE906F7E1E5CFF0
:1037B0001BF0E5CF1AF0E5CF19F0E5CF18F0E5CF13
:1037C000F4FFE5CFF3FFE5CFF8FFE5CFF7FFE5CF57
:1037D000F6FFE5CFDAFFE7CFD9FFE552E5CFEAFF05
:1037E000E5CFE9FFE550E5CFE0FFE5CFD8FF1000DA
:0237F0001200C5
:0E37F2009EA018D09E90010EE66EE66AC6EC10
:1038000020F0E552E55266C2E6FF67C2E6FFC9EC6A
:103810000CF0E552E55264C2E6FF65C2E6FFC9EC72
:103820000CF0E552E5521200060EE66E95EC21F022
:10383000E5521200F00EE66E87EC21F0E552120020
:10384000F60EE66E87EC21F0E5521200D9CFE6FFC6
:10385000DACFE6FFE1CFD9FFE2CFDAFF9392630E32
:10386000E66E020EE66E000EE66EE66A64C2E6FFE3
:1038700065C2E6FF00EC0CF0006E060EE15C02E2B1
:10388000E16AE552E16E0050A7EC20F0000901E08A
:10389000FBD7E66A29EC1FF0E552C50EE66E420E34
:1038A000E66E000EE66EB6EC1EF0E552E552E5520D
:1038B0008172000EE66EE66A010EE66EE66AE66A60
:1038C000DFEC16F0006E050EE15C02E2E16AE55203
:1038D000E16E0050010EE66EB5EC1FF0E55264C2D9
:1038E000E6FF65C2E6FFC9EC0CF0E552E552B7D73A
:1038F000E668D0EC11F0E552E552E5CFDAFFE7CF0C
:10390000D9FF1200D9CFE6FFDACFE6FFE1CFD9FF2A
:10391000E2CFDAFF9394630EE66E020EE66E000EBF
:10392000E66EE66A64C2E6FF65C2E6FF00EC0CF0F4
:10393000006E060EE15C02E2E16AE552E16E0050C3
:10394000A7EC20F0000901E0FBD7110EE66E29EC90
:103950001FF0E552B60EE66E420EE66E000EE66E03
:10396000B6EC1EF0E552E552E5528174630EE66E48
:10397000020EE66E000EE66EE66A66C2E6FF67C2FB
:10398000E6FF00EC0CF0006E060EE15C02E2E16A7C
:10399000E552E16E0050010EE66EB5EC1FF0E55207
:1039A00064C2E6FF65C2E6FFC9EC0CF0E552E552E1
:1039B000B2D7E668D0EC11F0E552E552E5CFDAFF78
:1039C000E7CFD9FF1200F29E16EC00F09F0EE66ED4
:1039D000FEEC20F0E552190EE66E110EE66EE2ECFA
:1039E00020F0E552E552F50EE66E86EC20F0E55249
:1039F000B00EE66E3C0EE66EC6EC20F0E552E552E7
:103A0000E66A680EE66E020EE66E000EE66EE66A86
:103A10004C0EE66E380EE66E000EE66E12EC10F0FE
:103A2000006E080EE15C02E2E16AE552E16E0050D0
:103A3000010EE66ECC0EE66E020EE66E000EE66E2F
:103A4000E66A040EE66E390EE66E000EE66E12ECC5
:103A500010F0006E080EE15C02E2E16AE552E16EF0
:103A60000050010EE66EE66A68EC0AF0E552E55297
:103A7000F3CF64F2F4CF65F2000EE66EE66A68EC0E
:103A80000AF0E552E552F3CF66F2F4CF67F2280E62
:103A9000E66EF1EC1DF0E552A7EC20F0000901E024
:103AA000FBD7280EE66EB5EC1FF0E552A7EC20F030
:103AB000000901E0FBD70F0EE66EB5EC1FF0E552F2
:103AC000A7EC20F0000901E0FBD7060EE66EB5EC8E
:0A3AD0001FF0E55219EC01F012009E
:063ADA00010204081020A7
:103AE000408000000100020001000300010002000C
:103AF00001000400010002000100030001000200B7
:103B000001000500010002000100030001000200A5
:103B10000100040001000200010003000100020096
:103B20000100060001000200010003000100020084
:103B30000100040001000200010003000100020076
:103B40000100050001000200010003000100020065
:103B50000100040001000200010003000100020056
:103B60000100070001000200010003000100020043
:103B70000100040001000200010003000100020036
:103B80000100050001000200010003000100020025
:103B90000100040001000200010003000100020016
:103BA0000100060001000200010003000100020004
:103BB00001000400010002000100030001000200F6
:103BC00001000500010002000100030001000200E5
:103BD00001000400010002000100030001000200D6
:023BE0000100E2
:0E3BE200D9CFE6FFDACFE6FFE1CFD9FFE2CF81
:103BF000DAFF0F0E83160F0E9516959495929590F9
:103C00008C948C928C901AEC1CF0300EE66EB5EC15
:103C10001FF0E552050EE66E34EC21F0E552300E51
:103C2000E66EB5EC1FF0E552010EE66E34EC21F0C5
:103C3000E552320EE66EB5EC1FF0E552A7EC20F02F
:103C4000000901E0FBD7A7EC20F0000901E0FBD759
:103C5000FD0EDBCFE6FFB5EC1FF0E552A7EC20F040
:103C6000000901E0FBD7080EE66EB5EC1FF0E55247
:103C7000A7EC20F0000901E0FBD70F0EE66EB5ECD3
:103C80001FF0E552A7EC20F0000901E0FBD7010E80
:103C9000E66EB5EC1FF0E552A7EC20F0000901E05C
:103CA000FBD7130EE66EB5EC1FF0E552A7EC20F043
:103CB000000901E0FBD7800EE66E29EC1FF0E5520B
:0E3CC00000D0E552E5CFDAFFE7CFD9FF1200C2
:023CCE002A0EBC
:103CD000F66E000EF76E000EF86E03010900F55047
:103CE000996F0900F5509A6F03E1996701D03DD0B3
:103CF0000900F550946F0900F550956F0900F550D3
:103D0000966F09000900F550E96E0900F550EA6E5A
:103D1000090009000900F550976F0900F550986FE8
:103D200009000900F6CF9BF3F7CF9CF3F8CF9DF382
:103D300094C3F6FF95C3F7FF96C3F8FF03019753AB
:103D400002E1985307E00900F550EE6E9707F8E29C
:103D50009807F9D79BC3F6FF9CC3F7FF9DC3F8FFF5
:0C3D600003019907000E9A5BBFD7120008
:043D6C00D9CFE6FFC6
:103D7000DACFE6FFE1CFD9FFE2CFDAFFFB0EDBCFF0
:103D8000F6FFFC0EDBCFF7FFFD0EDBCFF8FF0800E0
:103D9000F55020E0A7EC20F0000901E0FBD7FB0E76
:103DA000DBCFF6FFFC0EDBCFF7FFFD0EDBCFF8FF1E
:103DB0000800F550E66E87EC1FF0E552D950FB0F76
:103DC000E96EFF0EDA20EA6EEE2A000EEE22000EF9
:103DD000EE22D4D700D0E552E5CFDAFFE7CFD9FF06
:023DE0001200CF
:0E3DE20018501D02F3CF14F0F4CF15F01E029E
:103DF000F3501526000EF420166E18501F02F350D3
:103E00001626000EF420176E18502002F3501726C5
:103E100019501D02F3501526F4501622000E1722D9
:103E200019501E02F3501626F450172219501F0283
:103E3000F35017261A501D02F3501626F45017227D
:103E40001A501E02F35017261B501D02F35017265E
:023E500012005E
:0E3E5200D9CFE6FFDACFE6FFE1CFD9FFE2CF0E
:103E6000DAFF0F0E95160F0E8316FD0EDB5080093C
:103E7000F00B83128C948C9214EC1CF08C8014EC5C
:103E80001CF08C900F0E8316FD0EDB38F00BF00B40
:103E9000831214EC1CF08C8014EC1CF08C90F00E4F
:103EA000951200D0E552E5CFDAFFE7CFD9FF120037
:103EB000D9CFE6FFDACFE6FFE1CFD9FFE2CFDAFFD5
:103EC0000F0E95160F0E8316FD0EDB504009F00BFA
:103ED00083128C948C9214EC1CF08C8014EC1CF0EB
:103EE0008C900F0E8316FD0EDB38F00BF00B831257
:103EF00014EC1CF08C8014EC1CF08C90F00E9512DD
:0E3F000000D0E552E5CFDAFFE7CFD9FF12007F
:023F0E00D9CF09
:103F1000E6FFDACFE6FFE1CFD9FFE2CFDAFF0F0EFF
:103F200095160F0E8316FD0EDB50F00B83128C825C
:103F30008C9414EC1CF08C8014EC1CF08C900F0E04
:103F40008316FD0EDB38F00BF00B831214EC1CF023
:103F50008C8014EC1CF08C90F00E951200D0E55281
:0A3F6000E5CFDAFFE7CFD9FF12002A
:063F6A00D9CFE6FFDACF1B
:103F7000E6FFE1CFD9FFE2CFDAFF0F0E95160F0E65
:103F80008316FD0EDB50F00B83128C948C9214EC94
:103F90001CF08C8014EC1CF08C900F0E8316FD0E20
:103FA000DB38F00BF00B831214EC1CF08C8014EC5B
:103FB0001CF08C90F00E951200D0E552E5CFDAFFA0
:063FC000E7CFD9FF12005B
:0A3FC600D9CFE6FFDACFE6FFE1CF26
:103FD000D9FFE2CFDAFFFC0EDBCFE9FFFD0EDBCF2E
:103FE000EAFFEF5016E0A7EC20F0000901E0FBD754
:103FF000FC0EDBCFE9FFFD0EDBCFEAFFEF50E66EF4
:1040000087EC1FF0E552FC0EDB2AFD0E01E3DB2AF4
:10401000E2D700D0E552E5CFDAFFE7CFD9FF1200B3
:10402000D9CFE6FFDACFE6FFE1CFD9FFE2CFDAFF63
:10403000E6528C848C8214EC1CF08C8014EC1CF006
:10404000F00E8314DF6E8C9014EC1CF08C8014EC5A
:104050001CF083380F0B0F0BDF128C908C928C941A
:10406000DF5000D0E552E552E5CFDAFFE7CFD9FFC8
:0240700012003C
:0E407200D9CFE6FFDACFE6FFE1CFD9FFE2CFEC
:10408000DAFFE6528C848C9214EC1CF08C8014ECD9
:104090001CF0F00E8314DF6E8C9014EC1CF08C80FE
:1040A00014EC1CF083380F0B0F0BDF128C908C94E8
:1040B0007F0EDF1400D0E552E552E5CFDAFFE7CFFF
:0440C000D9FF120012
:0C40C400176A166A156A146A200EE76E6F
:1040D000D890183619361A361B3614361536163659
:1040E00017361D50145C1E5015581F50165820507E
:1040F000175809E31D50145E1E50155A1F50165ACA
:0C4100002050175A182AE72EE4D71200AE
:04410C00D9CFE6FF22
:10411000DACFE6FFE1CFD9FFE2CFDAFFFD0EDB50C9
:104120007E0BCD6EFD0EDBAC02D0CD8E01D0CD9ED0
:10413000CF6ACE6A9E90DBAE02D09D8001D09D906A
:0E414000CD80E552E5CFDAFFE7CFD9FF1200C0
:02414E008C845F
:104150008C9214EC1CF08C8014EC1CF083AE0BD011
:104160008C9014EC1CF08C8014EC1CF08C908C94D3
:10417000010E0BD00AD08C9014EC1CF08C8014EC47
:0C4180001CF08C908C94000E00D01200FB
:04418C00D9CFE6FFA2
:10419000DACFE6FFE1CFD9FFE2CFDAFFE652E6520F
:1041A000FC0EDBCFDEFFDBCFDDFF010EDB50CF6E81
:1041B000DF50CE6EE552E552E552E5CFDAFFE7CFAC
:0441C000D9FF120011
:0C41C400D9CFE6FFDACFE6FFE1CFD9FF4C
:1041D000E2CFDAFFE652E652FC0EDBCFDEFFDBCFAA
:1041E000DDFF010EDB50D76EDF50D66EE552E55293
:0C41F000E552E5CFDAFFE7CFD9FF12005F
:0441FC00D9CFE6FF32
:10420000DACFE6FFE1CFD9FFE2CFDAFFFD0EDB50D8
:104210007F0BD56ED76AD66AF294FD0EDBAE02D064
:10422000F28A01D0F29AD58EE552E5CFDAFFE7CFD8
:04423000D9FF1200A0
:0C423400FE0EE3CFE9FFFF0EE3CFEAFF30
:10424000E9CFF3FFEACFF4FFFB0EE35003E1FC0EEE
:10425000E35009E0FB0EE30602E2FC0EE306FD0E6E
:08426000E350EE6EF1D71200ED
:08426800FF0EE350256EEF0E7E
:1042700001D0F30EE76EE72E3BEF21F00C0E246E1B
:10428000E76AE72E41EF21F0242E40EF21F0252EA2
:0642900039EF21F01200DD
:0A429600000EF36E00EE00F0060EBD
:1042A00001D81200EA6002D0EE6AFCD7F350E96050
:0642B0001200EE6AFCD7CB
:0A42B600205461736B2032207275F2
:1042C0006C65732100205461736B203120726F6321
:0442D0006B732100EB
:0C42D400F2A407D0F294D80ED76EA00E12
:1042E000D66ECAEC01F0F9EC1BF01200E652E55272
:0242F0001100BB
:0E42F20010EE80F020EE80F0F86A239C67EC5E
:0E4300001EF0A0EC21F0E3EC1CF0FBD7120045
:02430E00FF0EA0
:10431000E350256E1B0E00D001D0200EE76EE72E75
:0A432000FED7252EFAD700D01200B8
:06432A00FF0EE350E84E17
:104330001200000000D000D000D0E82EFAD7120002
:02434000120069
:020000040030CA
:0100010022DC
:010003000EEE
:010006008178
:00000001FF
